:020000040800F2
:1000000060090020B5040008890200088B0200087E
:100010008F02000893020008970200080000000009
:100020000000000000000000000000009B0200082B
:100030009D020008000000009F020008A1020008C5
:10004000CF040008CF040008CF040008CF04000844
:10005000CF040008CF040008CF040008CF04000834
:10006000CF040008CF040008CF040008CF04000824
:10007000CF040008CF040008CF040008CF04000814
:10008000CF040008CF040008CF040008CF04000804
:10009000C32C0008CF040008CF040008CF040008D8
:1000A000CF040008CF040008CF040008CF040008E4
:1000B000CF040008CF040008CF040008CF040008D4
:1000C000CF040008CF040008CF040008CF040008C4
:1000D000CF040008712B0008CF040008CF040008EB
:1000E000CF040008CF040008CF040008690200080C
:1000F000873C0008A3300008CF040008CF040008A4
:10010000CF040008CF040008CF040008CF04000883
:10011000CF040008CF040008CF040008CF04000873
:10012000CF040008CF040008CF040008CF04000863
:10013000CF040008CF040008CF040008CF04000853
:10014000CF040008CF040008CF040008CF04000843
:10015000CF040008CF040008CF040008CF04000833
:10016000CF040008CF040008CF040008CF04000823
:10017000CF040008CF040008CF040008CF04000813
:10018000CF040008CF04000800F002F800F03CF8AB
:100190000AA090E8000C82448344AAF10107DA45E2
:1001A00001D100F031F8AFF2090EBAE80F0013F0F8
:1001B000010F18BFFB1A43F0010318475046000017
:1001C00070460000103A24BF78C878C1FAD85207A8
:1001D00024BF30C830C144BF04680C6070470000C1
:1001E0000023002400250026103A28BF78C1FBD840
:1001F000520728BF30C148BF0B6070471FB504F0DD
:10020000FBFA1FBD10B510BD03F03CFF1146FFF710
:10021000F5FF00F009F803F05AFF03B4FFF7F2FF0F
:1002200003BC02F045FC000086B0144802F04EFC0E
:10023000A82002F0BBFB00200323082219460090EF
:1002400002F0BAFC03F01EFA02F062FE03F065FC55
:1002500009E001A803F094F8142201A9084803F06A
:1002600096FE03F05CF9F4E710B50121054802F0B1
:1002700086F80121034802F093F810BDA086010022
:100280006000002000180040704700BFFEE700BF7C
:10029000FEE700BFFEE700BFFEE77047704770470C
:1002A000704700000CB5002001900090764800686F
:1002B00040F480307449086000BF7348006800F45F
:1002C000003000900198401C0190009818B90198E6
:1002D000B0F5A04FF1D16C48006800F4003010B1C7
:1002E0000120009001E0002000900098012846D1F4
:1002F00065484030006840F08050634940310860F4
:100300006248006840F44040604908605E48083038
:1003100000685D49083108600846006840F4004004
:1003200008600846006840F4A05008605848091F5B
:100330000860081F006840F08070091F086000BF57
:100340005148006800F000700028F9D040F20570B4
:10035000504908604C480830006820F003004A49C2
:10036000083108600846006840F00200086000BFDD
:1003700045480830006800F00C000828F8D10CBD92
:1003800010B54548006840F47000434908603E4895
:10039000006840F001003C49086000203A490831FB
:1003A0000860394800683D490840374908603C48C2
:1003B000091D0860081F006820F48020091F0860DC
:1003C000002031490C310860FFF76CFF4FF00060EE
:1003D00031498039086010BD70B500200022022329
:1003E00000240221284D08352D6805F00C0020B1AD
:1003F000042806D0082834D107E02A4D2A4E35605B
:1004000033E02A4D284E35602FE01F4D2D1D2D68FD
:10041000C5F380541C4D2D1D2D6805F03F0154B1CE
:10042000224DB5FBF1F5184E361D3668C6F3881619
:1004300005FB06F209E01B4DB5FBF1F5124E361D2A
:100440003668C6F3881605FB06F20F4D2D1D2D6884
:10045000C5F301456D1C6B00B2FBF3F5124E356020
:1004600003E0104D104E356000BF00BF064D08354B
:100470002D68C5F303150E4E705D0B4D2D68C540FC
:10048000094E356070BD0000003802400070004029
:1004900008544007003C024088ED00E0FFFFF6FEF4
:1004A000103000240024F4000000002000127A0024
:1004B000040000200948804709480047FEE7FEE79E
:1004C000FEE7FEE7FEE7FEE7FEE7FEE7FEE7FEE704
:1004D00004480549054A064B70470000810300089F
:1004E00089010008600300206009002060050020E9
:1004F0006005002032490143324A1160704770B5EF
:10050000002100230F22C4781CB32E4C246804F46D
:10051000E064C4F5E064C4F30721C1F10404E3B26C
:100520000A4144789C40E1B28478144021430C078E
:10053000210E254C05786155047804F01F0501242F
:10054000AC4005786D11AD0005F1E025C5F800411E
:1005500009E0047804F01F050124AC401B4D067827
:10056000761145F8264070BD194A0A400243154BE2
:100570001B1F1A60704739B1124A121D12680243DC
:10058000104B1B1D1A6006E00E4A121D12688243B2
:100590000C4B1B1D1A607047042808D14FF0E02156
:1005A000096941F004014FF0E022116107E04FF0CA
:1005B000E021096921F004014FF0E0221161704748
:1005C0000000FA050CED00E000E400E080E100E04E
:1005D00080FFFF1F10B50446FE48844209D1012167
:1005E000480601F0B1F800214FF0007001F0ACF8BE
:1005F00008E00121880601F0A7F800214FF0806093
:1006000001F0A2F810BD30B50246002000231468A6
:1006100024F002041460146844F00104146000E043
:100620005B1C546804F001041CB94FF6FF74A3422C
:10063000F6D1546804F001040CB900206CE08C7908
:10064000012C04D1146844F08004146003E01468A1
:1006500024F080041460CC79012C04D1146844F097
:100660004004146003E0146824F0400414600C7A21
:10067000012C04D1146844F02004146003E01468D1
:1006800024F0200414604C7A012C04D1146844F046
:100690001004146003E0146824F0100414608C7AD1
:1006A000012C04D1146844F00804146003E01468B9
:1006B00024F008041460CC7A012C04D1146844F0AE
:1006C0000404146003E0146824F0040414608C78BB
:1006D000A407CD7844EA05640D7944EA05444D79D0
:1006E00044EA05540D886D1E2C43D461146824F02F
:1006F00001041460002300E05B1C546804F0010452
:100700001CB14FF6FF74A342F6D1546804F0010403
:100710000CB1002000E0012030BD10B50021837A2B
:10072000012202FA03F1AC4A126842F00102AA4B1C
:100730001A60A94A1C3212688A43A74B1C331A60FC
:10074000027BCAB9A44A0C3212688A43A24B0C330A
:100750001A604288C38842EA03439F4A4032847A3F
:1007600042F834300288838842EA03439A4A40328E
:10077000847A02EBC4025360027B012A19D1964AA3
:100780000C3212680A43944B0C331A604288038877
:1007900042EA0343904A4032847A42F83430C288B5
:1007A000838842EA03438C4A4032847A02EBC402D3
:1007B0005360C27A3AB9884A121D12688A43864B3E
:1007C0001B1D1A6006E0844A121D12680A43824B00
:1007D0001B1D1A60028932B97F4A143212688A439B
:1007E0007D4B14331A600289012A06D17A4A1432E9
:1007F00012680A43784B14331A60427B012A06D1EF
:10080000754A1C3212680A43734B1C331A60724AD1
:10081000126822F00102704B1A6010BD0021817134
:10082000C171017241728172C1728170C170032104
:1008300001710221417101210180704766490968F7
:1008400041F00101644A11601146096843F60E72D5
:100850009143614A11601146096841EA0021116023
:100860001146096821F001011160704721B1026849
:1008700042F48032026003E0026822F480320260B7
:100880007047E1B1026842F0800202604FF4C27228
:10089000125842F480734FF4C27213504FF4CA726C
:1008A000125842F480734FF4CA7213504FF4D2724C
:1008B000125842F480734FF4D27213501BE0026856
:1008C00022F0800202604FF4C272125822F4807348
:1008D0004FF4C27213504FF4CA72125822F480734C
:1008E0004FF4CA7213504FF4D272125822F480732C
:1008F0004FF4D2721350704710B50246002093682F
:1009000003F08063B3F1806F00D110E0936803F0CF
:100910000063B3F1006F01D1012008E0936803F098
:100920008053B3F1805F01D1022000E0042004284D
:1009300079D002F5C07303EB00131B6803F00104C8
:1009400002F5C07303EB00131C600B7A7BB94B7A82
:100950000C8843EA445302F5C07404EB0014246885
:10096000234302F5C07404EB0014236010E00B7AFB
:100970004C6843EAC4034C7A234302F5C07404EB89
:1009800000142468234302F5C07404EB00142360B0
:100990008B7A03F00F038B7202F5C07303EB001325
:1009A0005B6823F00F0402F5C07303EB00135C6077
:1009B00002F5C07303EB00135B688C7A234302F5E6
:1009C000C07404EB001463608B7B1C064B7B44EA11
:1009D000034403E000640040006600400B7B44EAEF
:1009E0000323CC7A234302F5C07404EB0014A36004
:1009F0008B7C1C064B7C44EA03440B7C44EA0323B7
:100A0000CC7B234302F5C07404EB0014E36002F5D1
:100A1000C07303EB00131B6843F0010402F5C073BD
:100A200003EB00131C6010BD10B50246002321B17A
:100A3000012907D002290FD109E09068F94C00EA9A
:100A400004030BE09068F84C00EA040306E09068A9
:100A5000F64C00EA040301E0002300BF00BFF44CA1
:100A6000181BA34216D007DC83B16FF080601844D6
:100A700070B1022818D111E0B0F5007F10D0ED4C14
:100A8000204448B1B0F5003F0ED10BE002230DE049
:100A900000230BE0002309E0002307E0012305E029
:100AA000012303E0012301E0002300BF00BFD8B20F
:100AB00010BD21B1012907D002290FD109E08268B8
:100AC00042F0800282600AE0826842F40042826062
:100AD00005E0826842F40002826000E000BF00BFCF
:100AE000704710B500F5D87303EB01131B6803F0D2
:100AF00004031372137A53B900F5D87303EB01138F
:100B00001B6840F2FF7404EA5353136009E000F5D8
:100B1000D87303EB01131B686FF0604404EAD3033E
:100B2000536000F5D87303EB01131B6803F0020355
:100B3000537200F5D87303EB01135B6803F00F03E6
:100B4000937200F5D87303EB01135B681B0AD3742F
:100B500000F5D87303EB01139B68D37200F5D873CB
:100B600003EB01139B681C0A147300F5D87303EBA5
:100B700001139B681C0C547300F5D87303EB01132D
:100B80009B681B0E937300F5D87303EB0113DB68AE
:100B9000D37300F5D87303EB0113DB681C0A1474DC
:100BA00000F5D87303EB0113DB681C0C547400F5DB
:100BB000D87303EB0113DB681B0E937421B9C36870
:100BC00043F02003C36003E0036943F020030361A3
:100BD00010BD21B9C26842F02002C26003E0026980
:100BE00042F02002026170470246002019B9D36822
:100BF00003F0030006E0012903D1136903F00300A9
:100C000000E00020704710B502460B4600204FF66A
:100C1000FF71BBB9146824F0020444F001041460AD
:100C200000E0491E546804F00304012C01D000299F
:100C3000F7D1546804F00304012C01D0002032E005
:100C4000012030E0012B13D1146824F00304146058
:100C500000E0491E546804F003040CB10029F8D1E7
:100C6000546804F003040CB100201CE001201AE0D9
:100C7000022B17D1146824F0010444F0020414601C
:100C800000E0491E546804F00304022C01D000293E
:100C9000F7D1546804F00304022C01D0002002E0D4
:100CA000012000E0002010BD014600200A6822F06B
:100CB000010242F002020A604A6802F00302022ABC
:100CC00000D10120704701464FF6FF7200200B68EB
:100CD00023F002030B6000E0521E4B6803F0020396
:100CE000022B01D1002AF7D14B6803F00203022B3B
:100CF00000D001207047014600208A6902F0700090
:100D00007047014600208A69100E70470146002096
:100D10008A69C2F3074070471AB143690B434361C4
:100D200002E043698B434361704710B502460020DF
:100D300001F4700343B19369C1F3130423400BB171
:100D400001202DE000202BE001F0807343B15368B7
:100D5000C1F3130423400BB1012021E000201FE068
:100D600001F0006343B19368C1F3130423400BB156
:100D7000012015E0002013E001F0007343B1D368B7
:100D8000C1F3130423400BB1012009E0002007E068
:100D90001369C1F3130423400BB1012000E00020CC
:100DA00010BD0022244B994202D10023836111E03F
:100DB000C1F3130201F000730BB1C2600AE001F04D
:100DC00080630BB1026105E001F000630BB182604A
:100DD00000E0426070470246002002EA01030BB1C6
:100DE000012000E00020704770B504460D46002643
:100DF00060692840002872D0B5F5807F69D01DDC7D
:100E0000082D42D006DC012D2DD0022D31D0042D2D
:100E10007FD134E0102D3ED0202D42D0402D78D10E
:100E200045E0000003000004000300080000031078
:100E3000000100080001FFF77000F030B5F5004F29
:100E400061D009DCB5F5007F4AD0B5F5806F4DD093
:100E5000B5F5006F5DD150E0B5F5803F2DD0B5F50B
:100E6000003F56D12FE0A0685549FFF7B4FF064672
:100E700051E0E0680321FFF7AEFF06464BE0E06873
:100E80000821FFF7A8FF064645E0E0681021FFF7BC
:100E9000A2FF06463FE020690321FFF79CFF0646BC
:100EA00039E020690821FFF796FF064633E0206904
:100EB0001021FFF790FF06462DE060680821FFF73C
:100EC0008AFF064627E060681021FFF784FF064688
:100ED00021E0A0690121FFF77EFF06461BE01BE031
:100EE000A0690221FFF777FF064614E0A0690421FC
:100EF000FFF771FF06460EE00BE0A0697021FFF7D7
:100F00006AFF064607E060680421FFF764FF0646B3
:100F100001E0002600BF00E00026304670BDB1F5BC
:100F2000007F3AD00FDC202928D006DC01291CD014
:100F300004291DD0082940D11DE0402921D0B1F558
:100F4000807F3AD126E0B1F5004F31D006DCB1F513
:100F5000806F25D0B1F5006F2FD124E0B1F5803F2F
:100F600012D0B1F5003F28D111E0154A826025E08A
:100F70000822C26022E01022C2601FE00822026143
:100F80001CE01022026119E00822426016E01022E3
:100F9000426013E00422426010E0042242600DE04F
:100FA000042242600AE0002282610422426005E0DD
:100FB000002282610422426000E000BF00BF70474F
:100FC0000101010010B504469848844208D101216E
:100FD000084600F086FB0021012000F082FB76E04D
:100FE0009348844208D10121022000F07AFB0021BD
:100FF000022000F076FB6AE08E48844208D101218D
:10100000042000F06EFB0021042000F06AFB5EE08B
:101010008948844208D10121082000F062FB0021A8
:10102000082000F05EFB52E08448844208D1012190
:10103000102000F056FB0021102000F052FB46E08B
:101040007F48844208D10121202000F04AFB002182
:10105000202000F046FB3AE07A48844208D1012182
:10106000402000F03EFB0021402000F03AFB2EE043
:101070007548844208D10121802000F032FB002114
:10108000802000F02EFB22E07048844208D101212C
:10109000801500F026FB0021A01500F022FB16E0D1
:1010A0006B48844208D10121401500F01AFB002151
:1010B000601500F016FB0AE06648844207D1012162
:1010C000001500F00EFB0021201500F00AFB10BDFA
:1010D000F0B50A4600210023002400BF3DE00125B1
:1010E00005FA01F3156805EA03049C4234D105684A
:1010F0004F000326BE40B543056015794E00B5404C
:101100000668354305601579012D02D01579022D49
:1011100016D185684F000326BE40B54385605579DA
:101120004E00B540866835438560456801268E408F
:10113000B5434560456896798E40B6B23543456003
:10114000C5684F000326BE40B543C560D5794E0043
:10115000B540C6683543C560491C1029BFD3F0BDF2
:101160004FF6FF7101600021017141718171C17100
:10117000704708B54FF480320092009A0A430092FB
:10118000009AC261C161009AC261C2690092C269DB
:10119000009208BD0246002013690B400BB10120EC
:1011A00000E0002070470146086980B2704702469F
:1011B000002053690B400BB1012000E00020704774
:1011C0000146486980B27047018370474183704788
:1011D0000AB1018300E04183704741617047426971
:1011E0004A4042617047F0B5002300244D07ED0EE0
:1011F00002FA05F3CE1000F1200555F826504E07EF
:10120000F70E0F26BE40B543CF1000F1200646F87A
:101210002750CE1000F1200555F8265045EA03046A
:10122000CE1000F1200545F82640F0BD0000024038
:101230000004024000080240000C0240001002407E
:101240000014024000180240001C0240002002402E
:101250000024024000280240F948006840F00100E4
:10126000F74908600020F64908310860F448006832
:10127000F4490840F2490860F348091D0860F34842
:10128000EF4984310860F0481038091D0860EC48C7
:10129000006820F48020EA4908600020E8490C3109
:1012A0000860E7498C31086070470021E44A921CCD
:1012B000117011460870704710B5014600220023D6
:1012C00000204A11012A02D1DD4C236808E0022ADD
:1012D00003D1DB4C7034236802E0D94C74342368AA
:1012E00001F01F02012494401C400CB1012000E0D9
:1012F000002010BD38B5002000900024002500BF5C
:101300003120FFF7D9FF05460098401C0090009857
:10131000B0F5A04F01D0002DF2D03120FFF7CCFF67
:1013200008B1012400E00024204638BD0146002019
:10133000C34A106820F0F80040EAC100106070470E
:10134000C349086070470021BD4A703211701170A6
:10135000012802D004280AD104E00121B84A7032E1
:10136000117005E00521B64A7032117000E000BF2F
:1013700000BF7047B7490860704770B5049C41EAE8
:1013800082150126C6EB530645EA0645054345EAA4
:101390000465AB4E361D356070BDAD4908667047BB
:1013A000820142EA0172A64B84331A607047A84951
:1013B0008866704710B5830143EA016343EA02730C
:1013C0009F4C8834236010BDA14908677047A0492D
:1013D000C864704702460020994B0833186820F013
:1013E000EC6042EA01031843954B083318607047DC
:1013F00002460020924B0833186820F0784042EAF9
:10140000010318438E4B08331860704701460020D3
:101410008B4A0832106820F00300084310607047C0
:1014200087480830006800F00C0070470146002033
:10143000834A0832106820F0F000084310607047BB
:10144000014600207E4A0832106820F4E05008432C
:101450001060704701460020794A0832106820F475
:10146000604040EAC10010607047F0B500210022E2
:101470000024022500260223714F08373F6807F039
:101480000C0121B1042905D0082937D105E0724F9C
:10149000076036E0714F076033E0694F3F1D3F68DA
:1014A000C7F38056664F3F1D3F6807F03F036EB19C
:1014B0006A4FB7FBF3F7DFF888C10CF1040CDCF8D6
:1014C00000C0CCF3881C07FB0CF40CE0624FB7FBA8
:1014D000F3F7DFF86CC10CF1040CDCF800C0CCF3BE
:1014E000881C07FB0CF4564F3F1D3F68C7F30147AC
:1014F0007F1C7D00B4FBF5F7076002E0564F0760E4
:1015000000BF00BF4E4F08373F6807F0F0010909E0
:10151000534F7A5C0768D7404760494F08373F68A8
:1015200007F4E051890A4E4F7A5C4768D7408760DC
:10153000434F08373F6807F46041490B484F7A5CD6
:101540004768D740C760F0BD002100F44072B2F593
:10155000407F0AD13A4A0832116821F4F811414A11
:1015600002401143364A08321160354A703212681F
:10157000C0F30B031A43324B70331A60704735497E
:10158000443908607047334940390860704736492C
:101590000860704701460020294A8C32106820F00C
:1015A0001F004A1E1043264A8C32106070470146C5
:1015B0000020234A8C32106820F4F8504A1E40EA7A
:1015C00002201F4A8C3210607047014600201C4ADE
:1015D0008C32106820F440100843106070470146B8
:1015E0000020174A8C32106820F440000843106035
:1015F000704701460020124A8C32106820F44030B7
:1016000008431060704719490860704739B10C4AA7
:101610003032126802430A4B30331A6006E0084A3F
:10162000303212688243064B30331A607047F9B18A
:10163000034A343212680243014B34331A601CE00F
:1016400000380240FFFFF6EA10300024003000208E
:1016500000004742800E47420024F40000127A0046
:1016600014000020FFFCFF0F5C014742E0114742DD
:101670008F4A126882438E4B1A60704739B18C4A88
:10168000121D126802438A4B1B1D1A6006E0884A2D
:10169000121D12688243864B1B1D1A60704739B1B8
:1016A000834A0C3212680243814B0C331A6006E005
:1016B0007F4A0C32126882437D4B0C331A607047AC
:1016C00039B17B4A103212680243794B10331A60E9
:1016D00006E0774A103212688243754B10331A6065
:1016E000704739B1724A243A12680243704B243B66
:1016F0001A6006E06E4A243A126882436C4B243B1F
:101700001A60704739B16A4A203A12680243684B3E
:10171000203B1A6006E0664A203A12688243644B16
:10172000203B1A60704739B1614A1C3A1268024383
:101730005F4B1C3B1A6006E05D4A1C3A126882430C
:101740005B4B1C3B1A60704739B1594A143A126816
:101750000243574B143B1A6006E0554A143A12688C
:101760008243534B143B1A60704739B1504A103AC8
:10177000126802434E4B103B1A6006E04C4A103A86
:10178000126882434A4B103B1A60704739B1484A8D
:101790001C3212680243464B1C331A6006E0444A6E
:1017A0001C3212688243424B1C331A60704739B1B5
:1017B0003F4A2032126802433D4B20331A6006E054
:1017C0003B4A203212688243394B20331A607047FB
:1017D00039B1374A243212680243354B24331A6038
:1017E00006E0334A243212688243314B24331A60B4
:1017F000704739B12E4A2C32126802432C4B2C33DD
:101800001A6006E02A4A2C3212688243284B2C3395
:101810001A60704739B1264A303212680243244BAD
:1018200030331A6006E0224A303212688243204B7D
:1018300030331A607047012808D11D493C310968CE
:1018400041F008011A4A3C32116007E018493C3166
:10185000096821F00801164A3C321160704739B11D
:10186000134A273A12780243114B273B1A7006E0BD
:101870000F4A273A127882430D4B273B1A70704764
:101880000B484030006840F08070094940310860E2
:10189000704701460020064A283A12680A400AB1F9
:1018A000012000E000207047014926390870704788
:1018B0003438024010B50446FE48844208D1012164
:1018C0000846FFF752FF00210120FFF74EFF9DE081
:1018D000B4F1804F08D101210846FFF735FF002100
:1018E0000120FFF731FF91E0F348844208D1012144
:1018F0000220FFF729FF00210220FFF725FF85E0E6
:10190000EE48844208D101210420FFF71DFF002189
:101910000420FFF719FF79E0E948844208D101214A
:101920000820FFF711FF00210820FFF70DFF6DE0F1
:10193000E448844208D101211020FFF705FF00216F
:101940001020FFF701FF61E0DF48844208D1012148
:101950002020FFF7F9FE00212020FFF7F5FE55E0DB
:10196000DA48844208D101210220FFF7FEFE00215F
:101970000220FFF7FAFE49E0D548844209D101214F
:101980000804FFF7F2FE00214FF48030FFF7EDFE70
:101990003CE0D048844209D101214804FFF7E5FE2C
:1019A00000214FF40030FFF7E0FE2FE0CA488442E8
:1019B00009D101218804FFF7D8FE00214FF48020CF
:1019C000FFF7D3FE22E0C548844208D10121402020
:1019D000FFF7BAFE00214020FFF7B6FE16E0C04830
:1019E000844208D101218020FFF7AEFE0021802033
:1019F000FFF7AAFE0AE0BB48844207D10121801507
:101A0000FFF7A2FE0021A015FFF79EFE10BD0022E9
:101A10000288A84B98420ED0AC4B98420BD0B0F144
:101A2000804F08D0A44B984205D0A44B984202D0D6
:101A3000A34B984204D14FF68F731A404B881A4338
:101A4000A04B984207D0A04B984204D04FF6FF43DA
:101A50001A400B891A4302804B68C3620B880385C6
:101A6000944B984202D0994B984201D18B7A0386CD
:101A70000123838270474FF0FF31416000210180D4
:101A800001814180817270470185828270470A46D8
:101A9000002101884FF68F73194011430180704770
:101AA00041627047C16270470146486A704701460B
:101AB000088D704721B1028842F00202028004E0E2
:101AC00002884FF6FD731A400280704721B10288E8
:101AD00042F00402028004E002884FF6FB731A40D1
:101AE0000280704721B1028842F08002028004E047
:101AF00002884FF67F731A400280704702884FF6C3
:101B0000F7731A40028002880A43028070470288F5
:101B10004FF6FF431A40028002880A430280704752
:101B200021B1028842F00102028004E002884FF6EF
:101B3000FE731A400280704770B500240022002313
:101B4000058C4FF6FE7635400584028C8388048B25
:101B50004FF68F752C40B51E2C400D882C43751EFA
:101B60002A408D892A434D882A43524DA84202D0EB
:101B7000564DA84213D14FF6F7752A40CD892A4316
:101B80004FF6FB752A408D882A434FF6FF652B40A0
:101B90004FF6FF552B400D8A2B434D8A2B438380F4
:101BA00004838D684563028470BD70B500240022F3
:101BB0000023058C4FF6EF7635400584028C838830
:101BC000048B48F6FF752C404FF6FF452C400D88DE
:101BD0004FF6FF7606EA05252C434FF6DF752A40BF
:101BE0008D8906EA05152A434D8806EA05152A431C
:101BF000304DA84202D0354DA8421DD14FF67F7519
:101C00002A40CD894FF6FF7606EA05152A434FF69E
:101C1000BF752A408D8806EA05152A434FF6FF3521
:101C20002B404FF2FF752B400D8A06EA85052B43AA
:101C30004D8A06EA85052B43838004838D6885637E
:101C4000028470BD70B5002400220023058C4FF67D
:101C5000FF6635400584028C8388848B4FF68F7530
:101C60002C404FF6FC752C400D882C434FF6FF5549
:101C70002A408D894FF6FF7606EA05252A434D88CE
:101C800006EA05252A430B4DA84202D00F4DA84273
:101C900038D14FF2FF752A40CD894FF6FF7606EA1C
:101CA00005252A434FF6FF352A408D8806EA05258B
:101CB0002A4319E0000001400004004000080040F1
:101CC000000C0040001000400014004000040140DF
:101CD000004001400044014000480140001800401D
:101CE000001C0040002000404EF6FF752B404DF6D2
:101CF000FF752B400D8A06EA05152B434D8A06EA2F
:101D000005152B43838084838D68C563028470BD71
:101D100070B5002200230024058C4EF6FF76354076
:101D20000584038C8488828B48F6FF752A404FF621
:101D3000FF452A400D884FF6FF7606EA05252A431F
:101D40004DF6FF752B408D8906EA05352B434D88EE
:101D500006EA05352B43FE4DA84202D0FD4DA842B0
:101D600008D14BF6FF752C400D8A4FF6FF7606EA38
:101D700085152C43848082838D680564038470BD3F
:101D8000002101804180818081608181C181018247
:101D90004182704770B50346002000241846183071
:101DA00001258D40ACB21D8CA5431D8409B10829C5
:101DB0000AD100EB610005684FF68F76354005606B
:101DC0000568154305600FE00D1FC5F34E05284457
:101DD000056848F6FF763540056005684FF6FF76E2
:101DE00006EA02263543056070BD41637047816392
:101DF0007047C1637047016470470A460021018B38
:101E00004FF68F7319401143018370470A46002132
:101E1000018B48F6FF7319404FF6FF7303EA022364
:101E20001943018370470A460021818B4FF68F7357
:101E300019401143818370470A460021818B48F67F
:101E4000FF7319404FF6FF7303EA0223194381839E
:101E500070470A460021018B4FF6F7731940114372
:101E6000018370470A460021018B4FF2FF7319402E
:101E70004FF6FF7303EA02231943018370470A46B2
:101E80000021818B4FF6F77319401143818370470E
:101E90000A460021818B4FF2FF7319404FF6FF7302
:101EA00003EA02231943818370470A460021018B0C
:101EB0004FF6FB7319401143018370470A46002116
:101EC000018B4FF6FF3319404FF6FF7303EA0223ED
:101ED0001943018370470A460021818B4FF6FB733B
:101EE00019401143818370470A460021818B4FF6C8
:101EF000FF3319404FF6FF7303EA0223194381832E
:101F000070470A460021018B4FF67F731940114339
:101F1000018370470A460021018BC1F30E014FF681
:101F2000FF7303EA02231943018370470A46002125
:101F3000818B4FF67F7319401143818370470A46A6
:101F40000021818BC1F30E014FF6FF7303EA0223D8
:101F50001943818370470A460021018C4FF6FD73B7
:101F600019401143018470470A460021018C4FF645
:101F7000F77319401143018470470A460021018C10
:101F80004FF6DF7319404FF6FF7303EA021319434C
:101F9000018470470A460021018C4FF67F73194077
:101FA0004FF6FF7303EA02131943018470470A4690
:101FB0000021018C4FF6FF5319404FF6FF7303EADF
:101FC00002231943018470470A460021018C4FF215
:101FD000FF7319404FF6FF7303EA0223194301848C
:101FE00070470A460021018C4DF6FF7319404FF6E9
:101FF000FF7303EA023319430184704730B50023AD
:1020000001248C40A3B2048C9C430484048C02FA07
:1020100001F5ADB22C43048430BD30B50023042457
:102020008C40A3B2048C9C430484048C02FA01F516
:10203000ADB22C43048430BD828B4FF2FF331A4083
:102040008283828B4FF6FF7303EA01231A43828354
:102050007047F0B50C461546002100220026078C7B
:102060004EF6FF7C07EA0C070784818B028C4FF643
:10207000FF7707EA043640F6FF4739404FF6FF770F
:1020800007EA052739434FF6FF7707EA0337394355
:1020900045F6FF773A4046F480573A4381830284FD
:1020A000F0BD828B4FF6F3731A408283828B0A4312
:1020B00082837047F0B50C461546002100220026A9
:1020C000078C4FF6FF6C07EA0C070784818B028CA4
:1020D0004FF6FF7707EA04264FF60C7739404FF6A4
:1020E000FF7707EA03172F4339434FF2FF573A4070
:1020F00046F480773A4381830284F0BD028B4FF22D
:10210000FF331A400283028B4FF6FF7303EA012369
:102110001A4302837047F0B50C4615460021002291
:102120000026078C4FF6EF7C07EA0C070784018B2B
:10213000028C4FF6FF7707EA041640F6FF47394056
:102140004FF6FF7707EA033739434FF6FF7703E08F
:10215000000001400004014007EA052739434FF61B
:102160005F773A4046F010073A4301830284F0BD9E
:10217000028B4FF6F3731A400283028B0A430283E9
:102180007047F0B50C46154600210022068C4FF62C
:10219000FE773E400684018B028C4FF60C76314070
:1021A0007E1C06EA03162E4331434FF6F576324085
:1021B00044F00106324301830284F0BD70B5054648
:1021C0000C46208850B92389A28861882846FFF7E9
:1021D000D8FFE1882846FFF7CBFF25E020880428B8
:1021E0000AD12389A28861882846FFF794FFE188F5
:1021F0002846FFF783FF17E0208808280AD12389A3
:10220000A28861882846FFF755FFE1882846FFF736
:1022100048FF09E02389A28861882846FFF719FF53
:10222000E1882846FFF708FF70BD0021018041804A
:10223000012181800021C180018170472DE9F04199
:1022400005460C4600260127608808B9022600E0F2
:102250000026A088012801D1022700E0012720885C
:10226000A0B92389A28861882846FFF78AFFE18800
:102270002846FFF77DFF23893A4631462846FFF777
:102280004AFFE1882846FFF739FF13E02389A28837
:1022900061882846FFF73FFFE1882846FFF72EFFB9
:1022A00023893A4631462846FFF76BFFE1882846E6
:1022B000FFF75EFFBDE8F0810146486B70470146BD
:1022C000886B70470146C86B70470146086C7047C1
:1022D0000A884B881A438B881A43CB881A430B8988
:1022E0001A434B891A438B891A43A0F8442070473C
:1022F0000021018041808180C180018141818181F3
:10230000704731B1B0F8442042F40042A0F84420B4
:1023100005E0B0F84420C2F30E02A0F84420704754
:1023200021B1828842F00402828004E082884FF664
:10233000FB731A408280704721B1828842F001020B
:10234000828004E082884FF6FE731A4082807047D4
:102350001AB183890B43838102E083898B43838194
:1023600070478182704702460020138A0B400BB1F0
:10237000012000E000207047CA430282704730B558
:102380000246002000230024158A05EA01039589EE
:1023900005EA010413B10CB1012000E0002030BDBA
:1023A000CA430282704741EA0203A0F848307047EE
:1023B0001AB183890B43838102E083898B43838134
:1023C000704721B1828842F00802828004E082884E
:1023D0004FF6F7731A408280704701894FF6F87202
:1023E0001140018170470A46002101894FF68F7321
:1023F000194011430181704730B504460D46294606
:102400002046FFF7F0FF208940F00700208130BD13
:102410002DE9F04104460D4616461F46602D06D1B3
:102420003B46012231462046FFF775FE05E03B465C
:10243000012231462046FFF7A4FE29462046FFF739
:10244000D2FF208940F007002081BDE8F08130B53F
:102450000C4600210189C9B24FF6FF7505EA032534
:10246000154325432943018130BD2DE9F04105463F
:102470000E4617469846002443463A4631462846BB
:10248000FFF7E5FF2C894FF6F870044044F007048D
:102490004FF68F70044044F070042C81BDE8F08149
:1024A000F0B504460D4616461F463B4632462946C1
:1024B0002046FFF7CCFF208940F480402081F0BD0A
:1024C00082884FF68F731A40828082880A43828006
:1024D000704702894FF6F8731A40028102890A4355
:1024E0000281704702894FF67F731A400281028988
:1024F0000A4302817047F0B50C4615461E4600217E
:10250000002200230189028B038C4FF6F8773940B3
:1025100021434FF6FC473A4040F201173A434FF649
:10252000DD773B404FF6FF7707EA06172F433B4323
:10253000018102830384F0BD21B1828842F08002D0
:10254000828004E082884FF67F731A408280704751
:10255000A0F850107047000010B50446FA488442B5
:1025600008D101211020FFF700F900211020FFF70A
:10257000FCF857E0F548844209D101214804FFF7EF
:10258000E3F800214FF40030FFF7DEF84AE0F048AE
:10259000844209D101218804FFF7D6F800214FF4C5
:1025A0008020FFF7D1F83DE0EA48844209D10121BB
:1025B000C804FFF7C9F800214FF40020FFF7C4F862
:1025C00030E0E548844209D101210805FFF7BCF855
:1025D00000214FF48010FFF7B7F823E0DF48844272
:1025E00008D101212020FFF7C0F800212020FFF7AB
:1025F000BCF817E0DA48844209D101218807FFF7C7
:10260000A3F800214FF08040FFF79EF80AE0D5487C
:10261000844207D101214005FFF796F800216005AB
:10262000FFF792F810BD2DE9FF4705460E4600243E
:10263000A14600BFA046B08900B100BF2C8A24F497
:102640004054F08804432C82AC8941F20C608443EE
:10265000B08831890843718908430443AC81AC8A4E
:1026600024F44074B0890443AC826846FEF7FDFE52
:10267000B548854202D0B948854202D1DDF80C90B8
:1026800001E0DDF80890A88900F4004040B109EBB2
:10269000C90000EB091031684900B0FBF1F707E011
:1026A00009EBC90000EB091031688900B0FBF1F7B4
:1026B0006420B7FBF0F004012009642101FB1078CD
:1026C000A88900F4004040B1322000EBC800B0FB04
:1026D000F1F000F00700044308E0322000EB08109E
:1026E0006421B0FBF1F000F00F0004432C81BDE841
:1026F000FF874FF41651016000218180C180018164
:102700000C21418100218181704710B502460020D3
:10271000108A20F470600B884C8823438C882343F4
:10272000CC8823431843108210BD002101804180D2
:102730008180C180704721B1828942F40052828138
:1027400004E082894DF6FF731A4082817047028B44
:1027500002F47F420283028B0A430283704721B155
:10276000828942F40042828103E08289C2F30E0230
:102770008281704721B1828A42F40062828204E041
:10278000828A4FF2FF731A4082827047C1F30802B7
:102790008280704701468888C0F308007047028A2B
:1027A0004FF6F0731A400282028A0A43028270478F
:1027B00021B1828942F00202828104E082894FF6CF
:1027C000FD731A408281704782894FF2FF731A406D
:1027D000828182890A4382817047028A4FF6DF73C1
:1027E0001A400282028A0A430282704721B1028A99
:1027F00042F48042028204E0028A4BF6FF731A40E0
:1028000002827047818941F001018181704721B1C5
:10281000828A42F00802828204E0828A4FF6F773CD
:102820001A4082827047028BD2B20283028B42EA44
:1028300001220283704721B1828A42F02002828203
:1028400004E0828A4FF6DF731A408282704721B11A
:10285000828A42F01002828204E0828A4FF6EF738D
:102860001A4082827047828A4FF6FB731A40828236
:10287000828A0A438282704721B1828A42F0020230
:10288000828204E0828A4FF6FD731A40828270478A
:102890001AB1838A0B43838202E0838A8B4383824B
:1028A0007047F0B50346002400260025002040F6BE
:1028B0006A17B94200D100BF1846C1F3421401F0B3
:1028C0001F06012707FA06F5012C01D10C3004E0A0
:1028D000022C01D1103000E014301AB107682F43E8
:1028E000076002E00768AF430760F0BD02460020C2
:1028F000B1F5007F00D100BF13880B400BB1012060
:1029000000E00020704701F40072B2F5007F00D1B2
:1029100000BFCA430280704770B5024600240023FE
:102920000025002040F66A16B14200D100BFC1F375
:10293000421501F01F03012606FA03F3012D13D1FE
:102940009689334017E00000001001400044004029
:1029500000480040004C004000500040001401407E
:1029600000780040007C0040022D02D1168A3340DE
:1029700001E0968A33400C12012606FA04F4168808
:10298000344013B10CB1012000E0002070BD10B53F
:102990000022002340F66A14A14200D100BF0A12AF
:1029A00001249440A3B2DC43048010BD10B504465A
:1029B0006FF00400FDF7F0FDE11704EB5171C1F376
:1029C000C701394A11701046007800EB4001C1EB95
:1029D000C0104FF6FF7101EAC0003449088010BDF5
:1029E0000146314A12784A434FF0E0235A610022EF
:1029F0009A611A46126942F001021A6100BF4FF053
:102A0000E022106900F001021AB100F48032002ABD
:102A1000F5D04FF0E022126922F001024FF0E023DE
:102A20001A6100229A6170470146204A12884A437F
:102A30004FF0E0235A6100229A611A46126942F06F
:102A400001021A6100BF4FF0E022106900F001029C
:102A50001AB100F48032002AF5D04FF0E02212695A
:102A600022F001024FF0E0231A6100229A617047C0
:102A700070B504464FF4077094FBF0F0C6B24FF403
:102A8000077094FBF0F100FB114085B205E04FF4B4
:102A90000770FFF7C9FF701EC6B2002EF7D115B13F
:102AA0002846FFF7C1FF70BD24000020260000204B
:102AB000014600BF704700BF3B4A128802F0400247
:102AC000002AF9D0C2B2384B9A80704710B588B04E
:102AD000044601210846FEF799FD01211020FEF76A
:102AE000EFFD072209213148FEF77DFB07220A216D
:102AF0002E48FEF778FB4FF4C060069002208DF858
:102B00001C008DF81D0000208DF81E0001208DF89E
:102B10001F0006A92548FEF7DBFA02940020ADF855
:102B20000C00ADF80E00ADF81000ADF814000C204C
:102B3000ADF8120002A91C48FFF775FD01211A48E3
:102B4000FFF7F9FD012240F225511748FFF7A9FED2
:102B500025208DF8040003208DF805008DF806006F
:102B600001208DF8070001A8FDF7C9FC08B010BDD1
:102B700010B540F225510C48FFF7CEFE90B10A483F
:102B8000FFF708FEC4B20A480A49096844540948D4
:102B90000068401C0749086008460068122801D1F7
:102BA0000020086010BD000000100140000002403D
:102BB0003C010020300000202DE9F0418AB005469C
:102BC0000E4617469846109C01210846FEF71EFD4A
:102BD00001214806FEF763FD4FF4C0500890022023
:102BE0008DF8240000208DF8260003208DF82500A4
:102BF00001208DF8270008A9B548FEF769FA0922D7
:102C00000B21B348FEF7EFFA09220C21B048FEF77A
:102C1000EAFA01214806FEF742FD01218806FEF787
:102C20003EFD01208DF81B0000208DF81C000820BF
:102C30008DF8180003208DF8190000208DF816007B
:102C40008DF81D000320ADF8140000208DF81E0043
:102C50008DF817008DF81A008DF81F0005A99D4802
:102C6000FDF7D1FC01208DF811000020ADF80C001B
:102C7000ADF80400ADF80600ADF80800ADF80A00A4
:102C80008DF80F008DF80E0001208DF8100001A8BE
:102C9000FDF743FD012202218E48FEF73DF8142086
:102CA0008DF8000002208DF801008DF8020001204F
:102CB0008DF803006846FDF722FC00200AB0BDE84D
:102CC000F08110B586B002218248FEF78DF8002809
:102CD00064D004217F48FEF722F97F497D48FEF742
:102CE00060F801AA00217B48FDF7FBFE0198A0F2E5
:102CF0000120062851D2DFE800F0030F1C293643DB
:102D0000002406E00DF10F00005D74490855601CB9
:102D100084B2042CF6DB40E0002407E00DF10F0044
:102D2000015D6E4808300155601C84B2042CF5DB4F
:102D300033E0002407E00DF10F00015D674810301B
:102D40000155601C84B2042CF5DB26E0002407E06A
:102D50000DF10F00015D614818300155601C84B20F
:102D6000042CF5DB19E0002407E00DF10F00015DF4
:102D70005A4820300155601C84B2082CF5DB0CE069
:102D8000002407E00DF10F00015D54482830015583
:102D9000601C84B2082CF5DB00BF00BF06B010BD7C
:102DA000F0B585B007460D4600244FF40070009042
:102DB000002001908DF808008DF809008DF80A5068
:102DC00000BF05E0395D0DF10B000155601C84B2B8
:102DD000AC42F7DB69463F48FDF78EFD064600240E
:102DE00001E0601C84B231463A48FDF71DFE18B977
:102DF00040F6FF708442F4DB40F6FF70844202DB51
:102E0000012005B0F0BD0020FBE7F0B585B0064617
:102E10000F46002440F2FF100090002001908DF832
:102E200008008DF809008DF80A7000BF05E0315DDB
:102E30000DF10B000155601C84B2042CF7DB00215E
:102E40008DF8111069462348FDF756FD054600240C
:102E500001E0601C84B229461E48FDF7E5FD18B963
:102E600040F6FF708442F4DB40F6FF70844202DBE0
:102E7000012005B0F0BD0020FBE770B586B0064626
:102E800000211448FDF7B0FE10B9002006B070BD57
:102E9000002418E004E001AA00210E48FDF721FEFD
:102EA00004F2012001998142F5D1002507E00DF1DE
:102EB0000F00405D06EBC4014855681C85B2082D23
:102EC000F5DB601C84B2032CE4DB0020DEE70000AD
:102ED0000000024000640040080000325C01002055
:102EE000DFEDFE1AC0ED001A00214160DFEDFB1A94
:102EF000C0ED021ADFEDF91AC0ED031A416101615C
:102F0000816180ED070AC0ED080A80ED091A70475B
:102F10001FB501210802FEF7C2FB3120029040F2EA
:102F20004730ADF804000020ADF80600ADF80C0005
:102F300001A9EB48FEF76BFD01221146E848FFF7B7
:102F400007FA0121E648FEF7EBFD2D208DF8000081
:102F500000208DF8010001208DF802008DF803009B
:102F60006846FDF7CCFA9FEDDD1ADFEDDC0AB3EE23
:102F7000080ADC48FFF7B4FF9FEDD81ADFEDD70A47
:102F8000B3EE000AD848FFF7ABFF9FEDD41ADFED90
:102F9000D30A9FEDD20AD548FFF7A2FF9FEDCF1AC3
:102FA000DFEDCE0A9FEDD20AD248FFF799FF41F23A
:102FB0007C50D14988801FBD014681ED020AD1EDC8
:102FC000030AFDEEE00AC1ED040AD1ED000A91ED1D
:102FD000021A70EEC10AC1ED030AD1ED060AF8EE3D
:102FE000E00A91ED031A70EE810AFDEEE00AC1EDF0
:102FF000060AD1ED070A91ED031A60EE810AD1EDC0
:10300000081A91ED061AB8EEC11A41EE810AD1ED07
:10301000031A91ED041AB8EEC11A31EEC11AD1EDBE
:10302000091A41EE810AFDEEE00AC1ED010A486885
:10303000704701884288891A09B20181B0F90810E5
:10304000AE4A914204DA4189491C09B2418109E042
:10305000B0F9081041F64C52914203DD4189491EF6
:1030600009B2418101888288891A00EE101AB8EEEF
:10307000C00ADFEDA30A20EE200A9FEDA21AC0EEDF
:10308000010A41894FF4B47211FB02F100EE101AEB
:10309000B8EEC00A30EE800A80ED030A0188418054
:1030A000704710B501218E48FFF769F9012877D1E3
:1030B000954890F82100944991F8201040EA0120A9
:1030C0008D490880904890F829008F4991F8281080
:1030D00040EA01208D4908808748FFF7AAFF8B4806
:1030E000FFF7A7FF8A48B0F9040000EE100AB8EE17
:1030F000C00ADFED880A80EE201A874890ED000AAA
:1031000031EE000A80ED000A9FED740A80ED000A9E
:1031100090ED000A744880ED000A8048007802288B
:1031200020D17548D0ED030AB0EE600A6E48FFF773
:1031300043FF00EE100AB8EEC00A6A4880ED000AAC
:103140007248D0ED030AB0EE600A6A48FFF734FF18
:1031500000EE100AB8EEC00A644880ED000A0020B4
:103160006E4908705F4890ED000ADFED6D0AB4EE1D
:10317000E00AF1EE10FA02D290ED000A01E09FEDB4
:10318000680A584880ED000A90ED000ADFED650AF4
:10319000B4EEE00AF1EE10FA03DD90ED000A02E071
:1031A000E3E09FED600A4F4880ED000A4F4890ED44
:1031B000000ADFED5B0AB4EEE00AF1EE10FA02D28B
:1031C00090ED000A01E09FED560A484880ED000AA4
:1031D00090ED000ADFED530AB4EEE00AF1EE10FACA
:1031E00002DD90ED000A01E09FED4E0A3F4880EDC0
:1031F000000A4D4890ED000A3A48FFF7DDFE4042D4
:1032000000B24A4908804A4890ED000A3748FFF763
:10321000D3FE404200B2474908804448B0F900005C
:1032200041F28831884203DA4048B0F9000001E0F9
:1032300041F288303D4908800846B0F900003E4917
:10324000884203DD3948B0F9000000E03A483749C8
:1032500008803848B0F9000041F28831884203DA2A
:103260003448B0F9000001E041F28830314908806B
:103270000846B0F900003049884203DD2D48B0F916
:10328000000000E02C482B4908802148407A0228A1
:103290005CD12649B1F90000C11700EB1161090AA0
:1032A000264A11702149B1F90000C11700EB1161E4
:1032B0000912A0EB012151701E49B1F90000C1179C
:1032C00000EB1161090A91701A49B1F90000C117A8
:1032D00000EB11610912A0EB012131E000000000B8
:1032E000002000408C010020DC010020B4010020FF
:1032F0009A99193F040200202C020020B4E2FFFF3B
:103300000000B443000000465C010020440200209D
:103310006000002000007A453800002048000020AE
:1033200000802244008022C450000020340000208D
:10333000540000203600002078ECFFFF4000002001
:10334000D17008211046FFF760FD09E0002009490F
:10335000087048708870C87008210648FFF755FD4E
:1033600005480078401C0449087001210348FFF714
:1033700017F810BD40000020480000200020004049
:1033800010B586B00446394800783849497840EA93
:103390000120C0F30A00C0F58060ADF80400334896
:1033A0004078C0103149897840EA4110C0F30A00E2
:1033B000C0F58060ADF806002C48807880112B495C
:1033C000C97840EA81002949097940EA8120C0F39F
:1033D0000A00C0F58060ADF808002448007940106C
:1033E0002249497940EAC110C0F30A00C0F5806063
:1033F000ADF80A001D484079001180088DF80C00D6
:103400001A484079C0F301108DF80D0017488079F3
:103410001649C97940EA0120ADF80E001348007A38
:103420001249497A40EA0120ADF810000F48807A2D
:103430000E49C97A40EA0120ADF812000B48007B22
:103440008DF814000948407B8DF815000748807BF3
:103450000649C97B40EA0120ADF81600142201A9F3
:10346000204600F094FD06B010BD00003C01002095
:103470002DE9F04106460F4614461D4600F030FA8D
:10348000002141EA4601C8B200F0D6FA00F069FA1C
:1034900020B100F047FA0120BDE8F081384600F085
:1034A000CBFA00F05EFA00F01BFA012101EB4601B5
:1034B000C8B200F0C1FA00F054FA0DE0012C04D1BA
:1034C000002000F0E6FA287003E0012000F0E1FAA5
:1034D0002870601EC4B26D1C002CEFD100F022FADF
:1034E0000020D9E77CB504460D466B4606224321F1
:1034F0006820FFF7BDFF06467EB99DF803009DF8E2
:10350000021040EA012000B220809DF805009DF8DD
:10351000041040EA012000B2288030467CBD7CB512
:1035200000240025694601A8FFF7DCFFBDF9000073
:10353000D249B1F90010401A00EE100AB8EEC00AE4
:10354000DFEDCF0A80EE201ACE4880ED001ABDF9DB
:103550000400CD49B1F90010401A00EE100AB8EE8F
:10356000C00ADFEDC70A80EE201AC84880ED001AB5
:103570007CBD70B505460C4600F0B2F9D02000F0D5
:103580005BFA00F0EEF918B100F0CCF9012070BD43
:10359000284600F051FA00F0E4F9204600F04CFA19
:1035A00000F0DFF918B100F0BDF90120EFE700F0FD
:1035B000B9F90020EBE770B504460025BC2C01DB0F
:1035C000012510E0622C01DB02250CE02A2C01DB36
:1035D000032508E0142C01DB042504E00A2C01DBA0
:1035E000052500E0062529461A20FFF7C2FF70BD19
:1035F00070B50446B4F57A7F01DD4FF47A74042C7B
:1036000000DA04244FF47A7090FBF4F0401EC5B247
:1036100029461920FFF7ADFF0546264604EBD67173
:10362000C1F34F00FFF7C7FF70BD70B5044600F04F
:1036300057F9D02000F000FA00F093F9204600F08E
:10364000FBF900F08EF900F04BF9D12000F0F4F90D
:1036500000F087F9002000F01CFA054600F062F93E
:10366000284670BD10B50446E006010E1C20FFF789
:1036700080FF10BD10B50446E006010E1B20FFF7C9
:1036800078FF10BD7CB500F00DF94FF4FA70FFF72C
:10369000EFF980216B20FFF76CFFC820FFF7E8F9F6
:1036A00000216B20FFF765FF0220FFF7E3FF0020FA
:1036B000FFF7D8FF4FF47A70FFF79AFF0021382008
:1036C000FFF757FF00216A20FFF753FF0021232057
:1036D000FFF74FFF80213720FFF74BFF7520FFF7E3
:1036E000A4FF0546682D0CD101216B20FFF741FF97
:1036F00000216C20FFF73DFF4FF47A70FFF778FF51
:1037000001E001207CBD002412E0694601A8FFF71A
:10371000E9FEBDF80400400000B20190BDF80000D1
:10372000400000B200900A20FFF7A2F9601CC4B26A
:10373000052CEADBBDF90400052190FBF1F01338FC
:1037400000B251490880BDF90000052190FBF1F05D
:10375000133800B2494908800020D3E710B52DED99
:10376000088B82B001AB022241216820FFF780FE66
:103770009DF805009DF8041040EA012004B220469F
:1037800000F0E4FE41EC1B0B9FED410B53EC102BC2
:1037900000F084FD41EC1A0B9FED3F0B53EC102B16
:1037A00000F0D4FC41EC190B00F09EFC08EE100A6E
:1037B0009FED3B0A28EE000ABDEEC00A10EE100A8B
:1037C00000B202B0BDEC088B10BD2DE9FC410446EF
:1037D0000D4616466B4606223B216820FFF748FE41
:1037E0000746BFB99DF801009DF8001040EA01208E
:1037F00000B220809DF803009DF8021040EA0120ED
:1038000000B228809DF805009DF8041040EA0120D0
:1038100000B230803846BDE8FC812DE9F041054614
:103820000E461746984600F05BF8002141EA450134
:10383000C8B200F001F900F094F820B100F072F87D
:103840000120BDE8F081304600F0F6F800F089F87C
:1038500000240CE018F8040000F0EEF800F081F805
:1038600018B100F05FF80120EBE7601CC4B2BC4265
:10387000F0DB00F057F80020E3E700004E000020E6
:1038800033330342500000204C000020540000203D
:103890000000000000407540A4703D0AD74342403C
:1038A0000000C8421CB501212020FDF7AFFE032017
:1038B000009001208DF8040000208DF80600032000
:1038C0008DF8050001208DF8070069468848FDF74E
:1038D000FFFB0120874908608749C1F884021CBDAD
:1038E00010B58348006820F00C0081490860084644
:1038F000006840F00400086001207E49091D08604E
:103900007D49C1F880020420FFF76AF80020794958
:10391000091D08600420FFF763F800207649C1F80C
:10392000800210BD10B57248006820F00C0070498C
:1039300008600846006840F00400086000206D49F7
:1039400008606D49C1F884020420FFF749F801209E
:10395000684908606849C1F884020420FFF740F80C
:1039600010BD10B500246248006820F00C006049CA
:10397000086008460068086001205E49091D08606B
:10398000FFF72EF801205C49C1F88002FFF728F804
:1039900007E0601CC4B2FA2C03DDFFF7C3FF01206F
:1039A00010BD54487C3800680028F2D151490860A5
:1039B00000BFF5E710B500204E4908604C4800688C
:1039C00020F00C004A4908600846006840F00400F6
:1039D000086000204849C1F884020220FFF700F87F
:1039E0000120444908600220FEF7FAFF0020424906
:1039F000C1F8800210BD10B500203E4908603C4867
:103A0000006820F00C003A4908600846006840F061
:103A10000400086001203849C1F884020220FEF742
:103A2000DFFF0120334908600220FEF7D9FF0020A4
:103A30003149C1F8800210BD70B504462C480068B9
:103A400020F00C002A4908600846006840F0040095
:103A50000860002027490860002517E0E009254993
:103A6000091D08606006040E0220FEF7B9FF012060
:103A70002149C1F880020220FEF7B2FF00201D4953
:103A800008600220FEF7ACFF681CC5B2082DE5DB1C
:103A900070BD70B5054600241548006820F00C0084
:103AA00013490860084600680860002616E00020F8
:103AB000104908600220FEF793FF01200E49C1F86B
:103AC00080026006040E0B487C38006808B1601C58
:103AD000C4B20120FEF784FF701CC6B2082EE6DBDC
:103AE00015B9FFF788FF01E0FFF764FF204670BDBE
:103AF0000014024080824242008042420021016064
:103B000041608160C16041610161816180ED070AAE
:103B1000C0ED080A80ED091A70471FB50121802009
:103B2000FDF7BDFD40F2F310029040F24730ADF8D2
:103B300004000020ADF80600ADF80C0001A9FA4819
:103B4000FDF765FF01221146F748FEF701FC012150
:103B5000F548FDF7E5FF2C208DF8000001208DF8D9
:103B6000010002208DF8020001208DF80300684654
:103B7000FCF7C5FCB0EE001ADFEDEC0AB2EE000A6D
:103B8000EB48FFF7BBFFB0EE001ADFEDE80AB2EE3C
:103B9000000AE848FFF7B2FFB0EE001ADFEDE30AD3
:103BA000B2EE000AE448FFF7A9FFB0EE001ADFED1D
:103BB000DF0AB2EE000AE148FFF7A0FF1FBD30B5F3
:103BC000DF4CB4F90240DE4DB5F90050641BDC4D0A
:103BD000B5F90450641B0460D94CB4F90240D84DC7
:103BE000B5F900502C44D64DB5F904502C4464422C
:103BF0000C60D34CB4F90240D14DB5F90050641BB0
:103C0000CF4DB5F904502C4464421460CC4CB4F947
:103C10000240CB4DB5F900502C44C94DB5F90450C4
:103C2000641B1C6030BD0146FDEEC00AC1ED020AF6
:103C3000C86808618A680868801AC860CA688869A4
:103C40001044886191ED071AD1ED030AF8EEE00AFD
:103C500061EE200AD1ED081A91ED061AB8EEC11AEC
:103C600041EE810AD1E90302801A01EE100AB8EE92
:103C7000C11AD1ED091A41EE810AFDEEE00AC1ED4B
:103C8000010A486870472DE9FC410121A648FEF76A
:103C900076FB012873D1AB48C078AA49897840EAFD
:103CA000012000B2A84908800846B0F9000047F694
:103CB000FF71884203DAA448B0F9000005E0A24889
:103CC000B0F90000A0F57F40FF3800B29E4908809F
:103CD0009C48C17A807A41EA002000B29A49488023
:103CE0000846B0F9020047F6FF71884203DA9648A9
:103CF000B0F9020005E09448B0F90200A0F57F4059
:103D0000FF3800B2904948808E48C17C807C41EAEF
:103D1000002000B28C4988800846B0F9040047F6BC
:103D2000FF71884203DA8848B0F9040005E086484C
:103D3000B0F90400A0F57F40FF3800B282498880C6
:103D40008048C17E807E41EA002000B27E49C88062
:103D50000846B0F9060047F6FF71884203DA7A4850
:103D6000B0F9060005E07848B0F90600A0F57F40FC
:103D7000FF3800B27449C8804FF000080EE0FCE044
:103D8000714830F918000D2190FBF1F000B26E4936
:103D900021F8180008F1010000F0FF08B8F1040F45
:103DA000EEDB664B644A63496148FFF708FF6648EB
:103DB000B0F9000000EE900AF8EEE00AB0EE600AFA
:103DC0005B48FFF730FFA0F1E6045F48B0F902005E
:103DD00000EE900AF8EEE00AB0EE600A5548FFF7F0
:103DE00022FFA0F132055848B0F9040000EE900A15
:103DF000F8EEE00AB0EE600A4F48FFF714FFA0F1BA
:103E000032065148B0F9060000EE900AF8EEE00ADA
:103E1000B0EE600A4948FFF706FFA0F1E607B4F5E7
:103E2000FA6F01DA204601E04FF4FA60044614F517
:103E3000FA6F01DD204600E044480446B5F5FA6F0C
:103E400001DA284601E04FF4FA60054615F5FA6FED
:103E500001DD284600E03D480546B6F5FA6F01DA77
:103E6000304601E04FF4FA60064616F5FA6F01DDC0
:103E7000304600E035480646B7F5FA6F01DA3846B5
:103E800001E04FF4FA60074617F5FA6F01DD384696
:103E900000E02E4807462A48007A022858D12046DA
:103EA000E11704EB1161090A8DF80010E11704EB2A
:103EB00011610912A4EB0121C9B28DF80110284645
:103EC000E91705EB1161090A8DF80210E91705EBF6
:103ED00011610912A5EB0121C9B28DF8031030461A
:103EE000F11706EB1161090A8DF80410F11706EBC2
:103EF00011610912A6EB0121C9B28DF805103846EF
:103F0000F91707EB1161090A8DF80610F91707EB8D
:103F100011610912A7EB0121C9B28DF80710082120
:103F20006846FEF73DFF28E0001C0040000000004E
:103F30005C02002084020020AC020020D402002099
:103F4000600000205C0100205800002030F8FFFFD6
:103F500000208DF800008DF801008DF802008DF82A
:103F600003008DF804008DF805008DF806008DF82B
:103F7000070008216846FEF713FF01210248FEF7FB
:103F80000FFABDE8FC810000001C00407047032AC6
:103F900040F2308010F0030C00F0158011F8013B66
:103FA000BCF1020F624498BF11F801CB00F8013B4D
:103FB00038BF11F8013BA2F1040298BF00F801CB11
:103FC00038BF00F8013B11F0030300F02980083AE4
:103FD000C0F0088051F8043B083A51F804CBA0E83F
:103FE0000810F5E7121D5CBF51F8043B40F8043B94
:103FF000AFF30080D20724BF11F8013B11F801CBC9
:1040000048BF11F8012B24BF00F8013B00F801CB99
:1040100048BF00F8012B70477047704770477047E2
:1040200010B5203AC0F00B80B1E81850203AA0E853
:104030001850B1E81850A0E81850BFF4F5AF5FEA87
:10404000027C24BFB1E81850A0E8185044BF18C93A
:1040500018C0BDE810405FEA827C24BF51F8043BE1
:1040600040F8043B08BF7047D20728BF31F8023B35
:1040700048BF11F8012B28BF20F8023B48BF00F8C9
:10408000012B7047754600F02BF8AE4605006946D7
:10409000534620F00700854618B020B5FCF718FA03
:1040A000BDE820404FF000064FF000074FF0000839
:1040B0004FF0000B21F00701AC46ACE8C009ACE8BA
:1040C000C009ACE8C009ACE8C0098D46704710B51E
:1040D0000446AFF300802046BDE81040FCF79DB8D1
:1040E00000487047FC02002021F00042A2F160521B
:1040F000B2F5801F01F0004328BFD2F17F6C0BD9CD
:104100005FEA001C43EAC20242EB507018BF7047DE
:1041100028BF20F001007047B2F5801FBCBF1846D1
:1041200070474FEA410C1CF5001F02D2084600F010
:1041300068BB70B500F021FA00000089FFF7F6BFF8
:104140004FF00040A0F580007047000010B591EAE4
:10415000030F48BF83F0004300F16C82841A71EBB7
:10416000030C05D2121943EB0C03001B61EB0C018D
:10417000DFF824E14FEA1154A4EB135C1EEA430F6D
:1041800018BF9EEA445F73D023EA0E03DCF1200ED1
:1041900021EA045143F4801332D322FA0CFE10EBCF
:1041A0000E0023FA0CFE41EB0E01CCF1200E03FAB7
:1041B0000EFE10EB0E0051F10001B1F5801FCCF1A5
:1041C000200E32D201EB045112FA0EF2BDE810407B
:1041D00058BF7047401C38BF5FEA420218BF7047A3
:1041E000002814BF20F0010041F100014FEA410313
:1041F00013F5001F38BF7047A1F1C04100F00BBAA2
:10420000012A43EB0302ACF1200CDCF11F0E32BF9C
:104210004FF0000E23FA0CF310EB030041EB0451B6
:10422000B4EB115FD0D0A1EB045101F58011490826
:104230005FEA300001EB04510ED350F1000038BFAB
:1042400012FA0EFE08D1BDE81040C9E7401C38BF85
:104250005FEA4202CAD1C3E7BDE810404FEA41031A
:1042600013F5001F38BF7047A1F1C04100F0D3B96A
:104270009EEA445F08D011EA5E0FBDE8104004BF1B
:1042800001F0004100207047BDE8104070B500F01B
:1042900074F900BF64FBBE3E0000E0FF2DE9C041A1
:1042A00030B4DFF8A0C23CEA111418BF3CEA131482
:1042B00000F0EC8081EA03051CEA111444EAD5748D
:1042C00018BF1CEA131500F0C780A4EB05044FF0DB
:1042D000004545EAC12145EAC32341EA505143EA7A
:1042E000525304F17F74994204F500344FEAC02020
:1042F0004FEAC22208BF904200F09C804FEA13654B
:104300000FF24016765D4FEA134506FB05F7C7F13D
:10431000807706FB07F74FEAD737A7FB036876429B
:10432000C8F58038A7FB06CE38BFA8F1010807FB07
:1043300008E64FF0000EA6FB028CE6FB03CEDCF194
:10434000000CCEF1004E38BFAEF1010EA6FB0C58AA
:104350004FF000074FF00005E6FB0E87A1FB08C6F3
:10436000A0FB07CE16EB0E0645F10005E1FB076545
:1043700015F1E04E7EBFA4F580345FEA46066D413C
:1043800016F1800745F100054FEA17274FEA066648
:1043900047EA0567A6F1DE46B6F1805F4FEA1525CC
:1043A0001FD9384624F0010C05EBC471BCF1FE6F37
:1043B00001EB0C1102D8F0BCBDE8008124425CBFC7
:1043C00001F5801E9EEAC47F02D4F0BCBDE80081E6
:1043D000244238D4F0BCA1F1C041BDE8004100F056
:1043E0001AB94FEAD22242EA43524FEAD323A7FB3B
:1043F00002864FEAD02040EA415007FB03661EEADE
:104400000E0F4FEAD12105FB026658BFA6EB0056FE
:10441000B6EB00564FEA520E4EEAC37E18EB0E0E74
:1044200056EB530EBDD518EB02085E417F1C55F1CB
:104430000005B6E74FF480154FF000074FF0000677
:104440004FF00008ADE7F0BC4FF0000001F1C041B3
:1044500001F00041BDE8008111EA0C1F0CEA1315C0
:1044600000D00CE013EA0C1F00F025804FF0000094
:10447000F0BC81EA030101F00041BDE80081F0BC1D
:10448000BDE8004181EA030100F0C5B8F0BCBDE819
:10449000004170B500F071F8097EFC3E00F007B8ED
:1044A00081EA03014FF0000001F00041704781EA0A
:1044B000030100F0B0B8F0BCBDE800414FF00000CF
:1044C00021497047FFFDFBF9F7F5F4F2F0EEEDEB53
:1044D000E9E8E6E4E3E1E0DEDDDBDAD8D7D5D4D302
:1044E000D1D0CFCDCCCBCAC8C7C6C5C4C2C1C0BF4E
:1044F000BEBDBCBBBAB9B8B7B6B5B4B3B2B1B0AF54
:10450000AEADACABAAA9A8A8A7A6A5A4A3A3A2A137
:10451000A09F9F9E9D9C9C9B9A99999897979695F2
:1045200095949393929191908F8F8E8E8D8C8C8B8E
:104530008B8A898988888787868585848483838216
:10454000828181800000FF070000F87F10F00042A8
:1045500048BF4042B0FA80F310FA03F10AD0C3F129
:104560001D0303F580634FEA415002EB035202EB57
:10457000D12170474FF0000070470EF1020E2EF06F
:10458000030E5EF8046B364205D4012A43EB0305A3
:1045900015F5001F12D8012841EB010C1CF5001F76
:1045A0000CD80ED14FEAD17C15F5001F0CEB4C0C4A
:1045B0000CF1020C08BF4CEBD37C04E04FF0080C6C
:1045C00001E04FEAD37C0CEB4C0526FA05F606F029
:1045D0000706B6F1040C06D20EEB860CBDE870405F
:1045E0004CF0010C6047DFE80CF0090B02024FF0C1
:1045F00000414FF00000A1F5002170BD19461046A2
:10460000012851EB010418BFD4F5001484BF002029
:1046100001F0004170BD0808A0F500114FEA31011A
:104620007047000010B591EA030F48BF83F00043C4
:104630003FF594AD841A71EB030C07D212198CF07C
:10464000004C43EB0C03001B61EB0C01DFF8A4E111
:104650004FEA1154A4EB135C1EEA430F18BF9EEA05
:10466000445F00F0B08023EA6E03524221EA045115
:10467000C3EB6E0338BF5B1EDCF1200E25D322FA9C
:104680000CFE10EB0E0043FA0CFE41EB0E01CCF1D8
:10469000200E03FA0EFE10EB0E0051F10001CCF1DA
:1046A000200E29D412FA0EF201EB0451BDE810409D
:1046B00058BF7047401C1CBFB2F1004F7047002824
:1046C0000CBF491C20F00100704712EB020E43EBB7
:1046D000030218BF4FF0010E4EEA4202ACF1200C6B
:1046E000DCF11E0E54D943FA0CFE10EB0E0051F112
:1046F000FF31CCF11E0ED5D50EF1010E12FA0EFED1
:10470000404141EB010101EB445C5FEA5C5C10D984
:1047100010EBDE7001EB045138BFBEF1004FBDE875
:10472000104018BF704700280CBF491C20F0010042
:10473000704730D24FEAD42C11F5001124F40064F4
:104740001BD0B1FA81F20B3AA41AA41ED2F12003B5
:10475000914030FA03F31943904001EBCC71002CE7
:1047600001EB0451BDE81040A8BF704701F1C04102
:104770004FF0000001F000417047B0FA80F310FAEA
:1047800003F100D110BDE41A173C4805C90AE4E75B
:1047900001EB045110BD491001EB0451BDE810407C
:1047A0004FEA300002E04FF0000170474A0008BFB6
:1047B0000042F8D0B2F5001F28BF704701F0004159
:1047C0004FF0000070479EEA445F07D011EA5E0F89
:1047D000BDE8104004BF002100207047BDE8104034
:1047E00070B5FFF7CAFE00BF40DFF63E83F0004120
:1047F000104670470000E0FF4FF04070E1EE100AF5
:104800007047FF2141EAD050C00570472C4800088E
:104810000000002060000000C40100088C4800086F
:104820006000002000090000E0010008007A030A8F
:104830000000000000000000010203040607080950
:104840000000000001020304010203040607080936
:104850000000000000000000000000000000000058
:104860000000000000000000000000000000000048
:104870000000000000000000000000000000000038
:0C4880000000000000000000000000002C
:040000050800018965
:00000001FF
