:020000040800F2
:10000000180800206D04000841020008430200089F
:10001000470200084B0200084F02000800000000E1
:100020000000000000000000000000005302000873
:10003000550200080000000057020008590200089D
:100040008704000887040008870400088704000864
:100050008704000887040008870400088704000854
:100060008704000887040008870400088704000844
:100070008704000887040008870400088704000834
:10008000AF3B0008870400088704000887040008C5
:10009000FF2E000887040008870400088704000872
:1000A0008704000887040008870400088704000804
:1000B00087040008870400088704000887040008F4
:1000C00087040008870400088704000887040008E4
:1000D00087040008870400088704000887040008D4
:1000E0008704000887040008870400081D02000830
:1000F0002D450008553300088704000887040008D0
:1001000087040008870400088704000887040008A3
:100110008704000887040008870400088704000893
:100120008704000887040008870400088704000883
:100130008704000887040008870400088704000873
:100140008704000887040008870400088704000863
:100150008704000887040008870400088704000853
:100160008704000887040008870400088704000843
:100170008704000887040008870400088704000833
:100180008704000887040008DFF80CD007F07EFE23
:1001900000480047D3010008180800201CB50121C1
:1001A000082001F0D5FB4FF40060009000208DF88E
:1001B000060003208DF8050001208DF80700694630
:1001C0001B4801F027F94FF40061194801F09EF92E
:1001D0001CBD08B501201749087003F063FCA82076
:1001E00002F086FD03F0A6FE002003230822194634
:1001F000009002F0FFFD02F0A9FF04F0E4F806F021
:100200002AFB0D4908704FF47A7002F0D3FD0020EC
:1002100008490870FFF7C2FF00BFFEE710B50121D3
:10022000064802F04EFA0121044802F05BFA10BDC4
:10023000000C02403C00002000000020001800409C
:10024000704700BFFEE700BFFEE700BFFEE700BF4C
:10025000FEE7704770477047704700000CB50020FC
:10026000019000907648006840F48030744908603E
:1002700000BF7348006800F4003000900198401CF3
:100280000190009818B90198B0F5A04FF1D16C48D1
:10029000006800F4003010B10120009001E000205F
:1002A00000900098012846D165484030006840F031
:1002B00080506349403108606248006840F4404023
:1002C000604908605E48083000685D490831086090
:1002D0000846006840F4004008600846006840F4A2
:1002E000A05008605848091F0860081F006840F0C7
:1002F0008070091F086000BF5148006800F000705E
:100300000028F9D040F20570504908604C48083088
:10031000006820F003004A49083108600846006878
:1003200040F00200086000BF45480830006800F057
:100330000C000828F8D10CBD10B54548006840F401
:100340007000434908603E48006840F001003C49A5
:10035000086000203A4908310860394800683D4982
:100360000840374908603C48091D0860081F0068BC
:1003700020F48020091F0860002031490C310860FA
:10038000FFF76CFF4FF0006031498039086010BD05
:1003900070B500200022022300240221284D0835D8
:1003A0002D6805F00C0020B1042806D0082834D1AF
:1003B00007E02A4D2A4E356033E02A4D284E35603D
:1003C0002FE01F4D2D1D2D68C5F380541C4D2D1D94
:1003D0002D6805F03F0154B1224DB5FBF1F5184EE3
:1003E000361D3668C6F3881605FB06F209E01B4D7C
:1003F000B5FBF1F5124E361D3668C6F3881605FBBF
:1004000006F20F4D2D1D2D68C5F301456D1C6B00C7
:10041000B2FBF3F5124E356003E0104D104E35601F
:1004200000BF00BF064D08352D68C5F303150E4EFD
:10043000705D0B4D2D68C540094E356070BD0000E4
:10044000003802400070004008544007003C024061
:1004500088ED00E0FFFFF6FE103000240024F400D9
:100460000400002000127A0008000020064880479F
:1004700006480047FEE7FEE7FEE7FEE7FEE7FEE789
:10048000FEE7FEE7FEE7FEE7390300088901000802
:1004900032490143324A1160704770B50021002390
:1004A0000F22C4781CB32E4C246804F4E064C4F515
:1004B000E064C4F30721C1F10404E3B20A414478C3
:1004C0009C40E1B28478144021430C07210E254C56
:1004D00005786155047804F01F050124AC400578C7
:1004E0006D11AD0005F1E025C5F8004109E0047883
:1004F00004F01F050124AC401B4D0678761145F829
:10050000264070BD194A0A400243154B1B1F1A6052
:10051000704739B1124A121D12680243104B1B1D5D
:100520001A6006E00E4A121D126882430C4B1B1D16
:100530001A607047042808D14FF0E021096941F0A2
:1005400004014FF0E022116107E04FF0E02109695A
:1005500021F004014FF0E022116170470000FA051C
:100560000CED00E000E400E080E100E080FFFF1F10
:1005700010B50446FE48844209D10121480601F025
:1005800085FA00214FF0007001F080FA08E00121A7
:10059000880601F07BFA00214FF0806001F076FAC6
:1005A00010BD30B5024600200023146824F0020478
:1005B0001460146844F00104146000E05B1C54688B
:1005C00004F001041CB94FF6FF74A342F6D154683D
:1005D00004F001040CB900206CE08C79012C04D1EA
:1005E000146844F08004146003E0146824F080046C
:1005F0001460CC79012C04D1146844F040041460D8
:1006000003E0146824F0400414600C7A012C04D137
:10061000146844F02004146003E0146824F02004FB
:1006200014604C7A012C04D1146844F01004146056
:1006300003E0146824F0100414608C7A012C04D1B7
:10064000146844F00804146003E0146824F00804FB
:100650001460CC7A012C04D1146844F004041460B2
:1006600003E0146824F0040414608C78A407CD78A7
:1006700044EA05640D7944EA05444D7944EA055499
:100680000D886D1E2C43D461146824F0010414609D
:10069000002300E05B1C546804F001041CB14FF619
:1006A000FF74A342F6D1546804F001040CB1002099
:1006B00000E0012030BD10B50021837A012202FA4A
:1006C00003F1AC4A126842F00102AA4B1A60A94A2F
:1006D0001C3212688A43A74B1C331A60027BCAB9CA
:1006E000A44A0C3212688A43A24B0C331A60428827
:1006F000C38842EA03439F4A4032847A42F8343046
:100700000288838842EA03439A4A4032847A02EBA1
:10071000C4025360027B012A19D1964A0C32126836
:100720000A43944B0C331A604288038842EA03431D
:10073000904A4032847A42F83430C288838842EA50
:1007400003438C4A4032847A02EBC4025360C27A7B
:100750003AB9884A121D12688A43864B1B1D1A60DB
:1007600006E0844A121D12680A43824B1B1D1A6060
:10077000028932B97F4A143212688A437D4B14339E
:100780001A600289012A06D17A4A143212680A4391
:10079000784B14331A60427B012A06D1754A1C3209
:1007A00012680A43734B1C331A60724A126822F0B3
:1007B0000102704B1A6010BD00218171C17101727C
:1007C00041728172C1728170C17003210171022175
:1007D00041710121018070476649096841F00101BA
:1007E000644A11601146096843F60E729143614AEA
:1007F00011601146096841EA00211160114609683B
:1008000021F001011160704721B1026842F4803289
:10081000026003E0026822F4803202607047E1B1B6
:10082000026842F0800202604FF4C272125842F431
:1008300080734FF4C27213504FF4CA72125842F4CC
:1008400080734FF4CA7213504FF4D272125842F4AC
:1008500080734FF4D27213501BE0026822F08002C2
:1008600002604FF4C272125822F480734FF4C272C5
:1008700013504FF4CA72125822F480734FF4CA72A4
:1008800013504FF4D272125822F480734FF4D27284
:100890001350704710B502460020936803F0806340
:1008A000B3F1806F00D110E0936803F00063B3F1FF
:1008B000006F01D1012008E0936803F08053B3F189
:1008C000805F01D1022000E00420042879D002F5E5
:1008D000C07303EB00131B6803F0010402F5C0733F
:1008E00003EB00131C600B7A7BB94B7A0C8843EA4C
:1008F000445302F5C07404EB00142468234302F54A
:10090000C07404EB0014236010E00B7A4C6843EAD7
:10091000C4034C7A234302F5C07404EB001424682A
:10092000234302F5C07404EB001423608B7A03F0B8
:100930000F038B7202F5C07303EB00135B6823F0A7
:100940000F0402F5C07303EB00135C6002F5C07383
:1009500003EB00135B688C7A234302F5C07404EB4D
:10096000001463608B7B1C064B7B44EA034403E06A
:1009700000640040006600400B7B44EA0323CC7A0D
:10098000234302F5C07404EB0014A3608B7C1C06A7
:100990004B7C44EA03440B7C44EA0323CC7B234393
:1009A00002F5C07404EB0014E36002F5C07303EBBE
:1009B00000131B6843F0010402F5C07303EB00133E
:1009C0001C6010BD10B50246002321B1012907D0DB
:1009D00002290FD109E09068F94C00EA04030BE00A
:1009E0009068F84C00EA040306E09068F64C00EAD0
:1009F000040301E0002300BF00BFF44C181BA34216
:100A000016D007DC83B16FF08060184470B1022803
:100A100018D111E0B0F5007F10D0ED4C204448B162
:100A2000B0F5003F0ED10BE002230DE000230BE0F8
:100A3000002309E0002307E0012305E0012303E090
:100A4000012301E0002300BF00BFD8B210BD21B1D7
:100A5000012907D002290FD109E0826842F0800203
:100A600082600AE0826842F40042826005E08268A7
:100A700042F40002826000E000BF00BF704710B582
:100A800000F5D87303EB01131B6803F00403137222
:100A9000137A53B900F5D87303EB01131B6840F2C6
:100AA000FF7404EA5353136009E000F5D87303EBB5
:100AB00001131B686FF0604404EAD303536000F530
:100AC000D87303EB01131B6803F00203537200F5A4
:100AD000D87303EB01135B6803F00F03937200F507
:100AE000D87303EB01135B681B0AD37400F5D8734A
:100AF00003EB01139B68D37200F5D87303EB01136A
:100B00009B681C0A147300F5D87303EB01139B68F0
:100B10001C0C547300F5D87303EB01139B681B0E78
:100B2000937300F5D87303EB0113DB68D37300F5FF
:100B3000D87303EB0113DB681C0A147400F5D87337
:100B400003EB0113DB681C0C547400F5D87303EB42
:100B50000113DB681B0E937421B9C36843F02003B3
:100B6000C36003E0036943F02003036110BD21B9B2
:100B7000C26842F02002C26003E0026942F0200233
:100B8000026170470246002019B9D36803F00300E0
:100B900006E0012903D1136903F0030000E00020FF
:100BA000704710B502460B4600204FF6FF71BBB9E7
:100BB000146824F0020444F00104146000E0491EAB
:100BC000546804F00304012C01D00029F7D15468C3
:100BD00004F00304012C01D0002032E0012030E0B9
:100BE000012B13D1146824F00304146000E0491EA3
:100BF000546804F003040CB10029F8D1546804F0DF
:100C000003040CB100201CE001201AE0022B17D1D4
:100C1000146824F0010444F00204146000E0491E4A
:100C2000546804F00304022C01D00029F7D1546861
:100C300004F00304022C01D0002002E0012000E0B7
:100C4000002010BD014600200A6822F0010242F097
:100C500002020A604A6802F00302022A00D101205F
:100C6000704701464FF6FF7200200B6823F0020325
:100C70000B6000E0521E4B6803F00203022B01D10F
:100C8000002AF7D14B6803F00203022B00D00120A9
:100C90007047014600208A6902F0700070470146E3
:100CA00000208A69100E7047014600208A69C2F34D
:100CB000074070471AB143690B43436102E043693F
:100CC0008B434361704710B50246002001F4700366
:100CD00043B19369C1F3130423400BB101202DE00C
:100CE00000202BE001F0807343B15368C1F313047B
:100CF00023400BB1012021E000201FE001F0006340
:100D000043B19368C1F3130423400BB1012015E0F4
:100D1000002013E001F0007343B1D368C1F3130462
:100D200023400BB1012009E0002007E01369C1F363
:100D3000130423400BB1012000E0002010BD00226D
:100D4000244B994202D10023836111E0C1F31302C5
:100D500001F000730BB1C2600AE001F080630BB1D7
:100D6000026105E001F000630BB1826000E04260C7
:100D700070470246002002EA01030BB1012000E0A7
:100D80000020704770B504460D4600266069284073
:100D9000002872D0B5F5807F69D01DDC082D42D0C7
:100DA00006DC012D2DD0022D31D0042D7FD134E071
:100DB000102D3ED0202D42D0402D78D145E00000AE
:100DC00003000004000300080000031000010008F5
:100DD0000001FFF77000F030B5F5004F61D009DC7D
:100DE000B5F5007F4AD0B5F5806F4DD0B5F5006FF1
:100DF0005DD150E0B5F5803F2DD0B5F5003F56D11F
:100E00002FE0A0685549FFF7B4FF064651E0E068BF
:100E10000321FFF7AEFF06464BE0E0680821FFF72D
:100E2000A8FF064645E0E0681021FFF7A2FF06464E
:100E30003FE020690321FFF79CFF064639E0206967
:100E40000821FFF796FF064633E020691021FFF7DF
:100E500090FF06462DE060680821FFF78AFF0646EE
:100E600027E060681021FFF784FF064621E0A069B3
:100E70000121FFF77EFF06461BE01BE0A06902216F
:100E8000FFF777FF064614E0A0690421FFF771FF22
:100E900006460EE00BE0A0697021FFF76AFF0646E8
:100EA00007E060680421FFF764FF064601E00026C2
:100EB00000BF00E00026304670BDB1F5007F3AD09B
:100EC0000FDC202928D006DC01291CD004291DD0E4
:100ED000082940D11DE0402921D0B1F5807F3AD1C9
:100EE00026E0B1F5004F31D006DCB1F5806F25D09A
:100EF000B1F5006F2FD124E0B1F5803F12D0B1F5EC
:100F0000003F28D111E0154A826025E00822C26026
:100F100022E01022C2601FE0082202611CE01022C1
:100F2000026119E00822426016E01022426013E0DC
:100F30000422426010E0042242600DE0042242607C
:100F40000AE0002282610422426005E00022826100
:100F50000422426000E000BF00BF704701010100B1
:100F6000016821F0010101600021016041608160A0
:100F7000C160016121214161DB49884204D13D21E9
:100F8000D94A103A91608CE0D7491831884205D18E
:100F90004FF47461D44A103A916082E0D249303102
:100FA000884205D14FF47411CF4A103A916078E02D
:100FB000CD494831884205D14FF07461CA4A103A90
:100FC00091606EE0C8496031884204D1C749C64A81
:100FD000103AD16065E0C4497831884204D1C449EF
:100FE000C14A103AD1605CE0BF499031884204D1D7
:100FF000C049BD4A103AD16053E0BB49A83188428C
:1010000005D14FF03D51B84A103AD16049E0BA4994
:10101000884204D13D21B84A083A116041E0B649FE
:101020001831884205D14FF47461B34A083A11600F
:1010300037E0B1493031884205D14FF47411AE4ADE
:10104000083A11602DE0AC494831884205D14FF093
:101050007461A94A083A116023E0A74960318842C7
:1010600004D1A249A44A121F11601AE0A2497831A2
:10107000884204D19E49A04A121F116011E09E4986
:101080009031884204D19B499B4A121F116008E0AD
:101090009949A831884204D14FF03D51964A121F18
:1010A0001160704710B500220268944B1A40CC685A
:1010B0000B6823434C6923438C692343CC69234346
:1010C0000C6A23434C6A23438C6A23434C6B2343AF
:1010D0008C6B23431A430260426922F00702D1E974
:1010E0000B3423431A4342610B6943604B688360AE
:1010F0008B68C36010BD0021016041608160C160E8
:10110000016141618161C161016241628162C162CB
:10111000016341638163704721B1026842F00102BB
:10112000026003E0026822F001020260704721B110
:10113000026842F40042026003E0026822F40042C6
:101140000260704721B1026842F02002026003E0B1
:10115000026822F020020260704741607047014639
:10116000486880B2704722B1036843F400230360EB
:1011700003E0036823F4002303600161704721B199
:10118000026842F48022026003E0026822F48022B6
:10119000026070470AB1016100E0C160704701461A
:1011A00000200A6802F400220AB1012000E00020B9
:1011B0007047014600200A6802F001020AB10120CE
:1011C00000E000207047014600204A6902F0380024
:1011D000704730B503460A4600200024464DAB4216
:1011E00002D24149103901E04349103902F000555B
:1011F0000DB14C6800E00C68414D2C4004EA02053A
:101200000DB1012000E0002030BD02463A4B9A4269
:1012100002D23548103801E03748103801F0005349
:101220001BB1374B0B40C36002E0354B0B40836072
:10123000704710B501F080034BB122B1436943F010
:101240008003436103E0436923F080034361802905
:101250000BD02AB1036801F01E042343036004E0AD
:10126000036801F01E04A343036010BD70B502467D
:10127000002000240025204EB24202D21A4B103B1F
:1012800001E01D4B103B1F4E0E4036B11E2606EAF4
:10129000D124166806EA040502E0566906F08005C6
:1012A00001F000560EB15C6800E01C68144E34403A
:1012B00004EA010616B10DB1012000E0002070BD66
:1012C00002460D4B9A4202D20748103801E00A4804
:1012D000103801F000531BB1094B0B40C36002E012
:1012E000074B0B4083607047106002403D000020B8
:1012F000400F002000003D20106402403F801CF0A1
:101300007D0F7D0F3C0F3C0F10B50446984884427A
:1013100008D10121084600F086FB0021012000F0E1
:1013200082FB76E09348844208D10121022000F03C
:101330007AFB0021022000F076FB6AE08E488442AE
:1013400008D10121042000F06EFB0021042000F0F0
:101350006AFB5EE08948844208D10121082000F040
:1013600062FB0021082000F05EFB52E084488442CA
:1013700008D10121102000F056FB0021102000F0C0
:1013800052FB46E07F48844208D10121202000F032
:101390004AFB0021202000F046FB3AE07A488442D4
:1013A00008D10121402000F03EFB0021402000F048
:1013B0003AFB2EE07548844208D10121802000F0DC
:1013C00032FB0021802000F02EFB22E07048844296
:1013D00008D10121801500F026FB0021A01500F0A6
:1013E00022FB16E06B48844208D10121401500F031
:1013F0001AFB0021601500F016FB0AE066488442E3
:1014000007D10121001500F00EFB0021201500F08E
:101410000AFB10BDF0B50A4600210023002400BFDE
:101420003DE0012505FA01F3156805EA03049C4235
:1014300034D105684F000326BE40B54305601579D9
:101440004E00B5400668354305601579012D02D080
:101450001579022D16D185684F000326BE40B5438D
:10146000856055794E00B54086683543856045688E
:1014700001268E40B5434560456896798E40B6B2E8
:1014800035434560C5684F000326BE40B543C5607F
:10149000D5794E00B540C6683543C560491C102952
:1014A000BFD3F0BD4FF6FF710160002101714171A2
:1014B0008171C171704708B54FF480320092009A73
:1014C0000A430092009AC261C161009AC261C26976
:1014D0000092C269009208BD0246002013690B40C9
:1014E0000BB1012000E0002070470146086980B27E
:1014F00070470246002053690B400BB1012000E009
:10150000002070470146486980B2704701837047E8
:10151000418370470AB1018300E041837047416114
:10152000704742694A4042617047F0B50023002489
:101530004D07ED0E02FA05F3CE1000F1200555F827
:1015400026504E07F70E0F26BE40B543CF1000F1D0
:10155000200646F82750CE1000F1200555F82650F9
:1015600045EA0304CE1000F1200545F82640F0BD01
:10157000000002400004024000080240000C02404B
:10158000001002400014024000180240001C0240FB
:10159000002002400024024000280240F948006870
:1015A00040F00100F74908600020F6490831086062
:1015B000F4480068F4490840F2490860F348091DFE
:1015C0000860F348EF4984310860F0481038091D7D
:1015D0000860EC48006820F48020EA490860002098
:1015E000E8490C310860E7498C31086070470021F8
:1015F000E44A921C117011460870704710B50146FC
:101600000022002300204A11012A02D1DD4C236868
:1016100008E0022A03D1DB4C7034236802E0D94C85
:101620007434236801F01F02012494401C400CB163
:10163000012000E0002010BD38B5002000900024FB
:10164000002500BF3120FFF7D9FF05460098401C58
:1016500000900098B0F5A04F01D0002DF2D03120BD
:10166000FFF7CCFF08B1012400E00024204638BD7C
:1016700001460020C34A106820F0F80040EAC1008B
:1016800010607047C349086070470021BD4A70323E
:1016900011701170012802D004280AD104E0012140
:1016A000B84A7032117005E00521B64A70321170E7
:1016B00000E000BF00BF7047B7490860704770B5D1
:1016C000049C41EA82150126C6EB530645EA06450D
:1016D000054345EA0465AB4E361D356070BDAD4926
:1016E00008667047820142EA0172A64B84331A6091
:1016F0007047A8498866704710B5830143EA0163C3
:1017000043EA02739F4C8834236010BDA1490867E7
:101710007047A049C864704702460020994B0833BF
:10172000186820F0EC6042EA01031843954B083337
:101730001860704702460020924B0833186820F06A
:10174000784042EA010318438E4B08331860704713
:10175000014600208B4A0832106820F0030008433D
:101760001060704787480830006800F00C00704730
:1017700001460020834A0832106820F0F000084338
:1017800010607047014600207E4A0832106820F43D
:10179000E05008431060704701460020794A083243
:1017A000106820F4604040EAC10010607047F0B556
:1017B000002100220024022500260223714F083751
:1017C0003F6807F00C0121B1042905D0082937D161
:1017D00005E0724F076036E0714F076033E0694FF4
:1017E0003F1D3F68C7F38056664F3F1D3F6807F0B7
:1017F0003F036EB16A4FB7FBF3F7DFF888C10CF116
:10180000040CDCF800C0CCF3881C07FB0CF40CE0E3
:10181000624FB7FBF3F7DFF86CC10CF1040CDCF896
:1018200000C0CCF3881C07FB0CF4564F3F1D3F68EB
:10183000C7F301477F1C7D00B4FBF5F7076002E0AA
:10184000564F076000BF00BF4E4F08373F6807F094
:10185000F0010909534F7A5C0768D7404760494F48
:1018600008373F6807F4E051890A4E4F7A5C4768B1
:10187000D7408760434F08373F6807F46041490B02
:10188000484F7A5C4768D740C760F0BD002100F43C
:101890004072B2F5407F0AD13A4A0832116821F409
:1018A000F811414A02401143364A08321160354A64
:1018B00070321268C0F30B031A43324B70331A6054
:1018C00070473549443908607047334940390860EA
:1018D000704736490860704701460020294A8C321B
:1018E000106820F01F004A1E1043264A8C321060F8
:1018F000704701460020234A8C32106820F4F850CB
:101900004A1E40EA02201F4A8C321060704701468E
:1019100000201C4A8C32106820F4401008431060EC
:10192000704701460020174A8C32106820F44000AE
:1019300008431060704701460020124A8C3210683C
:1019400020F4403008431060704719490860704720
:1019500039B10C4A3032126802430A4B30331A60F4
:1019600006E0084A303212688243064B30331A6070
:101970007047F9B1034A343212680243014B3433E1
:101980001A601CE000380240FFFFF6EA1030002425
:101990000030002000004742800E47420024F4003F
:1019A00000127A0018000020FFFCFF0F5C01474284
:1019B000E01147428F4A126882438E4B1A6070478B
:1019C00039B18C4A121D126802438A4B1B1D1A60E2
:1019D00006E0884A121D12688243864B1B1D1A605E
:1019E000704739B1834A0C3212680243814B0C3381
:1019F0001A6006E07F4A0C32126882437D4B0C333A
:101A00001A60704739B17B4A103212680243794B31
:101A100010331A6006E0774A103212688243754B21
:101A200010331A60704739B1724A243A126802437F
:101A3000704B243B1A6006E06E4A243A12688243D7
:101A40006C4B243B1A60704739B16A4A203A1268DD
:101A50000243684B203B1A6006E0664A203A12684F
:101A60008243644B203B1A60704739B1614A1C3A8B
:101A7000126802435F4B1C3B1A6006E05D4A1C3A49
:101A8000126882435B4B1C3B1A60704739B1594A5C
:101A9000143A12680243574B143B1A6006E0554A49
:101AA000143A12688243534B143B1A60704739B1A1
:101AB000504A103A126802434E4B103B1A6006E03F
:101AC0004C4A103A126882434A4B103B1A607047E6
:101AD00039B1484A1C3212680243464B1C331A6023
:101AE00006E0444A1C3212688243424B1C331A609F
:101AF000704739B13F4A2032126802433D4B2033D0
:101B00001A6006E03B4A203212688243394B203388
:101B10001A60704739B1374A243212680243354B94
:101B200024331A6006E0334A243212688243314B70
:101B300024331A60704739B12E4A2C32126802439E
:101B40002C4B2C331A6006E02A4A2C32126882434E
:101B5000284B2C331A60704739B1264A303212684C
:101B60000243244B30331A6006E0224A30321268B6
:101B70008243204B30331A607047012808D11D4939
:101B80003C31096841F008011A4A3C32116007E013
:101B900018493C31096821F00801164A3C321160AD
:101BA000704739B1134A273A12780243114B273B49
:101BB0001A7006E00F4A273A127882430D4B273BF2
:101BC0001A7070470B484030006840F08070094937
:101BD00040310860704701460020064A283A1268E2
:101BE0000A400AB1012000E000207047014926396F
:101BF000087070473438024010B50446FE488442ED
:101C000008D101210846FFF752FF00210120FFF70C
:101C10004EFF9DE0B4F1804F08D101210846FFF747
:101C200035FF00210120FFF731FF91E0F3488442A6
:101C300008D101210220FFF729FF00210220FFF730
:101C400025FF85E0EE48844208D101210420FFF7FA
:101C50001DFF00210420FFF719FF79E0E9488442C5
:101C600008D101210820FFF711FF00210820FFF70C
:101C70000DFF6DE0E448844208D101211020FFF7F8
:101C800005FF00211020FFF701FF61E0DF488442DB
:101C900008D101212020FFF7F9FE00212020FFF7C5
:101CA000F5FE55E0DA48844208D101210220FFF711
:101CB000FEFE00210220FFF7FAFE49E0D5488442EB
:101CC00009D101210804FFF7F2FE00214FF4803012
:101CD000FFF7EDFE3CE0D048844209D101214804E1
:101CE000FFF7E5FE00214FF40030FFF7E0FE2FE0A4
:101CF000CA48844209D101218804FFF7D8FE002197
:101D00004FF48020FFF7D3FE22E0C548844208D17B
:101D100001214020FFF7BAFE00214020FFF7B6FE68
:101D200016E0C048844208D101218020FFF7AEFEB2
:101D300000218020FFF7AAFE0AE0BB48844207D1B9
:101D400001218015FFF7A2FE0021A015FFF79EFEDE
:101D500010BD00220288A84B98420ED0AC4B98428E
:101D60000BD0B0F1804F08D0A44B984205D0A44BC3
:101D7000984202D0A34B984204D14FF68F731A4079
:101D80004B881A43A04B984207D0A04B984204D0EE
:101D90004FF6FF431A400B891A4302804B68C36217
:101DA0000B880385944B984202D0994B984201D1FD
:101DB0008B7A03860123838270474FF0FF314160A5
:101DC00000210180018141808172704701858282FA
:101DD00070470A46002101884FF68F73194011435E
:101DE0000180704741627047C16270470146486A8E
:101DF00070470146088D704721B1028842F0020207
:101E0000028004E002884FF6FD731A40028070479A
:101E100021B1028842F00402028004E002884FF6F9
:101E2000FB731A400280704721B1028842F08002A1
:101E3000028004E002884FF67F731A4002807047E8
:101E400002884FF6F7731A40028002880A43028024
:101E5000704702884FF6FF431A40028002880A4307
:101E60000280704721B1028842F00102028004E042
:101E700002884FF6FE731A400280704770B5002446
:101E800000220023058C4FF6FE7635400584028C37
:101E90008388048B4FF68F752C40B51E2C400D881F
:101EA0002C43751E2A408D892A434D882A43524D62
:101EB000A84202D0564DA84213D14FF6F7752A40DA
:101EC000CD892A434FF6FB752A408D882A434FF669
:101ED000FF652B404FF6FF552B400D8A2B434D8A53
:101EE0002B43838004838D684563028470BD70B585
:101EF000002400220023058C4FF6EF763540058440
:101F0000028C8388048B48F6FF752C404FF6FF4502
:101F10002C400D884FF6FF7606EA05252C434FF638
:101F2000DF752A408D8906EA05152A434D8806EAA1
:101F300005152A43304DA84202D0354DA8421DD187
:101F40004FF67F752A40CD894FF6FF7606EA0515D4
:101F50002A434FF6BF752A408D8806EA05152A43A5
:101F60004FF6FF352B404FF2FF752B400D8A06EAE6
:101F700085052B434D8A06EA85052B438380048320
:101F80008D688563028470BD70B500240022002333
:101F9000058C4FF6FF6635400584028C8388848B60
:101FA0004FF68F752C404FF6FC752C400D882C4356
:101FB0004FF6FF552A408D894FF6FF7606EA052534
:101FC0002A434D8806EA05252A430B4DA84202D034
:101FD0000F4DA84238D14FF2FF752A40CD894FF6F8
:101FE000FF7606EA05252A434FF6FF352A408D88FD
:101FF00006EA05252A4319E00000014000040040DC
:1020000000080040000C0040001000400014004098
:1020100000040140004001400044014000480140EC
:1020200000180040001C0040002000404EF6FF75E4
:102030002B404DF6FF752B400D8A06EA05152B4304
:102040004D8A06EA05152B43838084838D68C5631A
:10205000028470BD70B5002200230024058C4EF66A
:10206000FF7635400584038C8488828B48F6FF75A3
:102070002A404FF6FF452A400D884FF6FF7606EAC4
:1020800005252A434DF6FF752B408D8906EA053557
:102090002B434D8806EA05352B43FE4DA84202D05E
:1020A000FD4DA84208D14BF6FF752C400D8A4FF626
:1020B000FF7606EA85152C43848082838D6805644B
:1020C000038470BD00210180418081808160818115
:1020D000C18101824182704770B50346002000240F
:1020E0001846183001258D40ACB21D8CA5431D84C7
:1020F00009B108290AD100EB610005684FF68F7617
:10210000354005600568154305600FE00D1FC5F3F8
:102110004E052844056848F6FF7635400560056899
:102120004FF6FF7606EA02263543056070BD41632F
:10213000704781637047C1637047016470470A4606
:102140000021018B4FF68F731940114301837047B3
:102150000A460021018B48F6FF7319404FF6FF73C2
:1021600003EA02231943018370470A460021818B49
:102170004FF68F7319401143818370470A4600213F
:10218000818B48F6FF7319404FF6FF7303EA022371
:102190001943818370470A460021018B4FF6F7737C
:1021A00019401143018370470A460021018B4FF209
:1021B000FF7319404FF6FF7303EA022319430183AB
:1021C00070470A460021818B4FF6F773194011437F
:1021D000818370470A460021818B4FF2FF731940BB
:1021E0004FF6FF7303EA02231943818370470A46BF
:1021F0000021018B4FF6FB73194011430183704797
:102200000A460021018B4FF6FF3319404FF6FF734A
:1022100003EA02231943018370470A460021818B98
:102220004FF6FB7319401143818370470A46002122
:10223000818B4FF6FF3319404FF6FF7303EA0223F9
:102240001943818370470A460021018B4FF67F7343
:1022500019401143018370470A460021018BC1F3E5
:102260000E014FF6FF7303EA0223194301837047FF
:102270000A460021818B4FF67F73194011438183F9
:1022800070470A460021818BC1F30E014FF6FF73A0
:1022900003EA02231943818370470A460021018C17
:1022A0004FF6FD7319401143018470470A4600211F
:1022B000018C4FF6F77319401143018470470A46A9
:1022C0000021018C4FF6DF7319404FF6FF7303EACC
:1022D00002131943018470470A460021018C4FF60E
:1022E0007F7319404FF6FF7303EA02131943018409
:1022F00070470A460021018C4FF6FF5319404FF6F4
:10230000FF7303EA02231943018470470A46002140
:10231000018C4FF2FF7319404FF6FF7303EA02235B
:102320001943018470470A460021018C4DF6FF7362
:1023300019404FF6FF7303EA0233194301847047D3
:1023400030B5002301248C40A3B2048C9C43048448
:10235000048C02FA01F5ADB22C43048430BD30B5D3
:10236000002304248C40A3B2048C9C430484048C7A
:1023700002FA01F5ADB22C43048430BD828B4FF2DA
:10238000FF331A408283828B4FF6FF7303EA0123E7
:102390001A4382837047F0B50C461546002100228F
:1023A0000026078C4EF6FF7C07EA0C070784818B1A
:1023B000028C4FF6FF7707EA043640F6FF473940B4
:1023C0004FF6FF7707EA052739434FF6FF7707EA0D
:1023D0000337394345F6FF773A4046F480573A438E
:1023E00081830284F0BD828B4FF6F3731A4082839F
:1023F000828B0A4382837047F0B50C461546002154
:1024000000220026078C4FF6FF6C07EA0C070784B2
:10241000818B028C4FF6FF7707EA04264FF60C7784
:1024200039404FF6FF7707EA03172F4339434FF23E
:10243000FF573A4046F480773A4381830284F0BDE7
:10244000028B4FF2FF331A400283028B4FF6FF7369
:1024500003EA01231A4302837047F0B50C46154680
:10246000002100220026078C4FF6EF7C07EA0C07BC
:102470000784018B028C4FF6FF7707EA041640F6BB
:10248000FF4739404FF6FF7707EA033739434FF6E6
:10249000FF7703E0000001400004014007EA052740
:1024A00039434FF65F773A4046F010073A430183CD
:1024B0000284F0BD028B4FF6F3731A400283028B45
:1024C0000A4302837047F0B50C46154600210022EE
:1024D000068C4FF6FE773E400684018B028C4FF649
:1024E0000C7631407E1C06EA03162E4331434FF62C
:1024F000F576324044F00106324301830284F0BD98
:1025000070B505460C46208850B92389A288618899
:102510002846FFF7D8FFE1882846FFF7CBFF25E0E4
:10252000208804280AD12389A28861882846FFF7D9
:1025300094FFE1882846FFF783FF17E020880828EA
:102540000AD12389A28861882846FFF755FFE188D0
:102550002846FFF748FF09E02389A28861882846BA
:10256000FFF719FFE1882846FFF708FF70BD00213B
:1025700001804180012181800021C180018170475B
:102580002DE9F04105460C4600260127608808B970
:10259000022600E00026A088012801D1022700E0E1
:1025A00001272088A0B92389A28861882846FFF7DF
:1025B0008AFFE1882846FFF77DFF23893A463146A6
:1025C0002846FFF74AFFE1882846FFF739FF13E066
:1025D0002389A28861882846FFF73FFFE1882846C3
:1025E000FFF72EFF23893A4631462846FFF76BFF57
:1025F000E1882846FFF75EFFBDE8F0810146486BA1
:1026000070470146886B70470146C86B70470146AA
:10261000086C70470A884B881A438B881A43CB880A
:102620001A430B891A434B891A438B891A43A0F822
:10263000442070470021018041808180C180018158
:1026400041818181704731B1B0F8442042F40042A9
:10265000A0F8442005E0B0F84420C2F30E02A0F830
:102660004420704721B1828842F00402828004E055
:1026700082884FF6FB731A408280704721B18288AE
:1026800042F00102828004E082884FF6FE731A4015
:10269000828070471AB183890B43838102E083896A
:1026A0008B43838170478182704702460020138AE2
:1026B0000B400BB1012000E000207047CA430282AA
:1026C000704730B50246002000230024158A05EA31
:1026D0000103958905EA010413B10CB1012000E062
:1026E000002030BDCA430282704741EA0203A0F8CD
:1026F000483070471AB183890B43838102E0838994
:102700008B438381704721B1828842F00802828026
:1027100004E082884FF6F7731A408280704701897F
:102720004FF6F8721140018170470A460021018975
:102730004FF68F73194011430181704730B504463D
:102740000D4629462046FFF7F0FF208940F007009C
:10275000208130BD2DE9F04104460D4616461F4646
:10276000602D06D13B46012231462046FFF775FE1B
:1027700005E03B46012231462046FFF7A4FE2946EC
:102780002046FFF7D2FF208940F007002081BDE8F6
:10279000F08130B50C4600210189C9B24FF6FF75B2
:1027A00005EA0325154325432943018130BD2DE961
:1027B000F04105460E4617469846002443463A46E1
:1027C00031462846FFF7E5FF2C894FF6F8700440A4
:1027D00044F007044FF68F70044044F070042C81DD
:1027E000BDE8F081F0B504460D4616461F463B464F
:1027F000324629462046FFF7CCFF208940F480402E
:102800002081F0BD82884FF68F731A4082808288C3
:102810000A438280704702894FF6F8731A4002819A
:1028200002890A430281704702894FF67F731A407A
:10283000028102890A4302817047F0B50C461546B1
:102840001E460021002200230189028B038C4FF6D3
:10285000F877394021434FF6FC473A4040F20117E0
:102860003A434FF6DD773B404FF6FF7707EA06170E
:102870002F433B43018102830384F0BD21B1828851
:1028800042F08002828004E082884FF67F731A4013
:1028900082807047A0F850107047000010B50446C1
:1028A000FA48844208D101211020FFF700F90021E5
:1028B0001020FFF7FCF857E0F548844209D10121C8
:1028C0004804FFF7E3F800214FF40030FFF7DEF88B
:1028D0004AE0F048844209D101218804FFF7D6F884
:1028E00000214FF48020FFF7D1F83DE0EA48844210
:1028F00009D10121C804FFF7C9F800214FF40020D5
:10290000FFF7C4F830E0E548844209D10121080509
:10291000FFF7BCF800214FF48010FFF7B7F823E071
:10292000DF48844208D101212020FFF7C0F80021B0
:102930002020FFF7BCF817E0DA48844209D10121D2
:102940008807FFF7A3F800214FF08040FFF79EF8BB
:102950000AE0D548844207D101214005FFF796F8E7
:1029600000216005FFF792F810BD2DE9FF470546ED
:102970000E460024A14600BFA046B08900B100BFAA
:102980002C8A24F44054F08804432C82AC8941F210
:102990000C608443B088318908437189084304433B
:1029A000AC81AC8A24F44074B0890443AC8268469C
:1029B000FEF7FDFEB548854202D0B948854202D1F6
:1029C000DDF80C9001E0DDF80890A88900F40040E3
:1029D00040B109EBC90000EB091031684900B0FBB8
:1029E000F1F707E009EBC90000EB09103168890035
:1029F000B0FBF1F76420B7FBF0F00401200964217B
:102A000001FB1078A88900F4004040B1322000EBAF
:102A1000C800B0FBF1F000F00700044308E03220EA
:102A200000EB08106421B0FBF1F000F00F0004434C
:102A30002C81BDE8FF874FF4165101600021818091
:102A4000C18001810C21418100218181704710B535
:102A500002460020108A20F470600B884C882343C3
:102A60008C882343CC8823431843108210BD002157
:102A7000018041808180C180704721B1828942F408
:102A80000052828104E082894DF6FF731A408281F0
:102A90007047028B02F47F420283028B0A43028357
:102AA000704721B1828942F40042828103E0828929
:102AB000C2F30E028281704721B1828A42F4006221
:102AC000828204E0828A4FF2FF731A40828270474A
:102AD000C1F308028280704701468888C0F308006D
:102AE0007047028A4FF6F0731A400282028A0A4344
:102AF0000282704721B1828942F00202828104E0A1
:102B000082894FF6FD731A408281704782894FF2A5
:102B1000FF731A40828182890A4382817047028A48
:102B20004FF6DF731A400282028A0A43028270471C
:102B300021B1028A42F48042028204E0028A4BF60A
:102B4000FF731A4002827047818941F0010181813F
:102B5000704721B1828A42F00802828204E0828AB0
:102B60004FF6F7731A4082827047028BD2B202830B
:102B7000028B42EA01220283704721B1828A42F02D
:102B80002002828204E0828A4FF6DF731A4082823A
:102B9000704721B1828A42F01002828204E0828A68
:102BA0004FF6EF731A4082827047828A4FF6FB73AA
:102BB0001A408282828A0A438282704721B1828AC5
:102BC00042F00202828204E0828A4FF6FD731A40CC
:102BD000828270471AB1838A0B43838202E0838A20
:102BE0008B4383827047F0B50346002400260025FE
:102BF000002040F66A17B94200D100BF1846C1F361
:102C0000421401F01F06012707FA06F5012C01D135
:102C10000C3004E0022C01D1103000E014301AB165
:102C200007682F43076002E00768AF430760F0BD05
:102C300002460020B1F5007F00D100BF13880B4091
:102C40000BB1012000E00020704701F40072B2F5E2
:102C5000007F00D100BFCA430280704770B50246B2
:102C6000002400230025002040F66A16B14200D15E
:102C700000BFC1F3421501F01F03012606FA03F35A
:102C8000012D13D19689334017E000000010014058
:102C90000044004000480040004C0040005000400C
:102CA0000014014000780040007C0040022D02D159
:102CB000168A334001E0968A33400C12012606FA48
:102CC00004F41688344013B10CB1012000E0002058
:102CD00070BD10B50022002340F66A14A14200D155
:102CE00000BF0A1201249440A3B2DC43048010BD4B
:102CF00010B504466FF00400FDF71CFCE11704EB6F
:102D00005171C1F3C701394A11701046007800EBC8
:102D10004001C1EBC0104FF6FF7101EAC000344919
:102D2000088010BD0146314A12784A434FF0E02333
:102D30005A6100229A611A46126942F001021A6130
:102D400000BF4FF0E022106900F001021AB100F458
:102D50008032002AF5D04FF0E022126922F0010201
:102D60004FF0E0231A6100229A6170470146204A21
:102D700012884A434FF0E0235A6100229A611A46B2
:102D8000126942F001021A6100BF4FF0E02210699F
:102D900000F001021AB100F48032002AF5D04FF0A1
:102DA000E022126922F001024FF0E0231A610022B2
:102DB0009A61704770B504464FF4077094FBF0F0C9
:102DC000C6B24FF4077094FBF0F100FB114085B2DE
:102DD00005E04FF40770FFF7C9FF701EC6B2002E62
:102DE000F7D115B12846FFF7C1FF70BD28000020BC
:102DF0002A0000202DE9F0418AB005460E4617460C
:102E00009846109C01210846FEF7A2FD01214806C4
:102E1000FEF7E7FD4FF4C050089002208DF8240023
:102E200000208DF8260003208DF8250001208DF864
:102E3000270008A9B548FEF7EDFA09220B21B3488F
:102E4000FEF773FB09220C21B048FEF76EFB01214F
:102E50004806FEF7C6FD01218806FEF7C2FD0120E7
:102E60008DF81B0000208DF81C0008208DF818003C
:102E700003208DF8190000208DF816008DF81D0034
:102E80000320ADF8140000208DF81E008DF8170007
:102E90008DF81A008DF81F0005A99D48FDF781FBEC
:102EA00001208DF811000020ADF80C00ADF80400F1
:102EB000ADF80600ADF80800ADF80A008DF80F0077
:102EC0008DF80E0001208DF8100001A8FDF7F3FB2E
:102ED000012202218E48FDF7EDFE14208DF800003E
:102EE00002208DF801008DF8020001208DF803000A
:102EF0006846FDF7D2FA00200AB0BDE8F08110B5AF
:102F000086B002218248FDF73DFF002864D00421ED
:102F10007F48FDF7D2FF7F497D48FDF710FF01AAEA
:102F200000217B48FDF7ABFD0198A0F201200628A7
:102F300051D2DFE800F0030F1C293643002406E0DD
:102F40000DF10F00005D74490855601C84B2042C1B
:102F5000F6DB40E0002407E00DF10F00015D6E4854
:102F600008300155601C84B2042CF5DB33E00024EA
:102F700007E00DF10F00015D674810300155601C3E
:102F800084B2042CF5DB26E0002407E00DF10F00ED
:102F9000015D614818300155601C84B2042CF5DBDA
:102FA00019E0002407E00DF10F00015D5A482030C0
:102FB0000155601C84B2082CF5DB0CE0002407E00E
:102FC0000DF10F00015D544828300155601C84B29A
:102FD000082CF5DB00BF00BF06B010BDF0B585B012
:102FE00007460D4600244FF4007000900020019029
:102FF0008DF808008DF809008DF80A5000BF05E033
:10300000395D0DF10B000155601C84B2AC42F7DB59
:1030100069463F48FDF73EFC0646002401E0601C7F
:1030200084B231463A48FDF7CDFC18B940F6FF703E
:103030008442F4DB40F6FF70844202DB012005B0DD
:10304000F0BD0020FBE7F0B585B006460F46002432
:1030500040F2FF100090002001908DF808008DF8DC
:1030600009008DF80A7000BF05E0315D0DF10B001D
:103070000155601C84B2042CF7DB00218DF811107F
:1030800069462348FDF706FC0546002401E0601C64
:1030900084B229461E48FDF795FC18B940F6FF702A
:1030A0008442F4DB40F6FF70844202DB012005B06D
:1030B000F0BD0020FBE770B586B00646002114483D
:1030C000FDF760FD10B9002006B070BD002418E0C7
:1030D00004E001AA00210E48FDF7D1FC04F2012012
:1030E00001998142F5D1002507E00DF10F00405D07
:1030F00006EBC4014855681C85B2082DF5DB601C41
:1031000084B2032CE4DB0020DEE700000000024074
:103110000064004008000032A8000020DFEDFA1A29
:10312000C0ED001A00214160DFEDF71AC0ED021A70
:10313000DFEDF51AC0ED031A41610161816180ED97
:10314000070AC0ED080A80ED091A70471FB5012172
:103150000802FEF746FC3120029040F24730ADF8FD
:1031600004000020ADF80600ADF80C0001A9E74806
:10317000FEF7EFFD01221146E448FFF78BFA01212B
:10318000E248FEF76FFE2D208DF8000000208DF83C
:10319000010001208DF802008DF803006846FDF75C
:1031A0007CF9B1EE081ADFEDD80AB3EE060AD8486A
:1031B000FFF7B4FF9FEDD41ADFEDD30A9FEDD50AD8
:1031C000D548FFF7ABFF9FEDD01ADFEDCF0AB1EE88
:1031D000040AD248FFF7A2FFB0EE081ADFEDCA0AD0
:1031E000B3EE070ACE48FFF799FF41F27C50CD4974
:1031F000888041F2B030CC4988801FBD014681ED06
:10320000020AD1ED030AFDEEE00AC1ED040AD1ED98
:10321000000A91ED021A70EEC10AC1ED030AD1ED68
:10322000060AF8EEE00A91ED031A70EE810AFDEE4F
:10323000E00AC1ED060AD1ED070A91ED031A60EE2E
:10324000810AD1ED081A91ED061AB8EEC11A41EEC5
:10325000810AD1ED031A91ED041AB8EEC11A31EECC
:10326000C11AD1ED091A41EE810AFDEEE00AC1ED65
:10327000010A4868704701884288891A09B20181A9
:10328000B0F90810A94A914204DA4189491C09B2EF
:10329000418109E0B0F9081041F64C52914203DD3A
:1032A0004189491E09B2418101888288891A00EE4C
:1032B000101AB8EEC00ADFED9E0A20EE200A9FED3C
:1032C0009D1AC0EE010A41894FF4B47211FB02F15C
:1032D00000EE101AB8EEC00A30EE800A80ED030A44
:1032E00001884180704790ED000AD0ED010A30EE70
:1032F000600A80ED040A90ED040ADFED8F0AB4EE57
:10330000E00AF1EE10FA04D2818A491C09B28182E6
:103310000CE090ED040ADFED890AB4EEE00AF1EE6C
:1033200010FA03DD818A491E09B28182D0ED000ABC
:10333000818A4FF4B47211FB02F100EE101AB8EE5C
:10334000C00A30EE800A80ED060A90ED000A80ED9A
:10335000010A704710B501216C48FFF7B2F9012846
:103360007ED17748007800287BD0764890F82100FD
:10337000744991F8201040EA01206A490880714898
:1033800090F829006F4991F8281040EA0120664919
:10339000088000F0EEFC6348FFF76DFF6248FFF71E
:1033A0006AFF69480078012875D16848B0F90400BF
:1033B00000EE100AB8EEC00ADFED650A80EE201AB2
:1033C000644890ED000A31EE000A80ED000A5F4883
:1033D000B0F9060000EE100AB8EEC00ADFED5C0A94
:1033E00080EE201A5C4890ED000A31EE000A80ED74
:1033F000000A584890ED000ADFED580AB4EEE00AE2
:10340000F1EE10FA02DD9FED550A02E0514890ED11
:10341000000A504880ED000A3F4880ED000A4D4800
:1034200090ED000ADFED4E0AB4EEE00AF1EE10FA7C
:1034300002D29FED4B0A02E0464890ED000A454853
:1034400080ED000A344880ED000A434890ED000A00
:10345000F3EE090AB4EEE00AF1EE10FA05DD01E040
:103460000CE347E1B3EE090A02E03B4890ED000AA5
:10347000394880ED000A2A4880ED000A364890ED70
:10348000000ADFED380AB4EEE00AF1EE10FA03D2DA
:103490009FED340A03E02AE02F4890ED000A2E4801
:1034A00080ED000A1E4880ED000A1E48D0ED030A98
:1034B000B0EE600A1848FFF7A1FE00EE100AB8EE61
:1034C000C00A134880ED000A1748D0ED030AB0EE99
:1034D000600A1348FFF792FE404200EE100AB8EE71
:1034E000C00A0E4880ED000A0020174908700848FD
:1034F00090ED000ADFED1C0AB4EEE00AF1EE10FADE
:1035000034D290ED000A33E00000000000200040BB
:10351000D80000203333134128010020000100208F
:10352000500100207801002090010020B4E2FFFF4C
:103530000000B44300000046000096C3000096431C
:103540003C000020A800002050000020DE010020E8
:1035500000007A4534000020380000200000484276
:10356000000048C200000CC2008022441FED020A85
:10357000F84880ED000A90ED000ADFEDF70AB4EE9E
:10358000E00AF1EE10FA02DD90ED000A01E09FED95
:10359000F20AF04880ED000AF04890ED000A5FED75
:1035A0000E0AB4EEE00AF1EE10FA02D290ED000A33
:1035B00001E01FED130AE94880ED000A90ED000AD2
:1035C000DFEDE50AB4EEE00AF1EE10FA02DD90ED6F
:1035D000000A01E09FEDE00AE04880ED000AE048C3
:1035E00090ED000ADB48FFF709FE404200B2DD49DA
:1035F0000880DD4890ED000AD848FFF7FFFD00F590
:10360000167000B2D9490880D648B0F9000041F2DE
:103610008831884203DAD348B0F9000001E041F272
:103620008830D04908800846B0F90000D049884267
:1036300003DDCC48B0F9000000E0CD48C94908805E
:10364000CA48B0F9000041F28831884203DAC7481D
:10365000B0F9000001E041F28830C4490880084612
:10366000B0F90000C249884203DDC048B0F900004B
:1036700000E0BF48BD490880BE48407A022829D1F1
:10368000B849B1F90000C11700EB1161090ABA4A43
:103690001170B449B1F90000C11700EB11610912B2
:1036A000A0EB01215170B149B1F90000C11700EB45
:1036B0001161090A9170AD49B1F90000C11700EB21
:1036C00011610912A0EB0121D17008211046FFF70A
:1036D000BAFC09E00020A849087048708870C870DA
:1036E0000821A548FFF7AFFCA4480078401CA34977
:1036F0000870C3E1A24890F82100A14991F8201078
:1037000040EA01209F4908809D4890F829009C4983
:1037100091F8281040EA01209B49088000F029FB1D
:103720009A48FFF7E0FD9748FFF7A5FD9648FFF799
:10373000A2FD9248007801287AD100BF934A9449AB
:10374000944803F0D1F80028F8D18A48B0F9040071
:1037500000EE100AB8EEC00A5FED830A80EE201A70
:103760008D4890ED000A31EE000A80ED000A814894
:10377000B0F9060000EE100AB8EEC00A1FED8C1A70
:10378000C0EE010A854890ED000A30EE800A80ED17
:10379000000A814890ED000A5FED900AB4EEE00A5D
:1037A000F1EE10FA02DD1FED930A02E07A4890ED87
:1037B000000A794880ED000A794880ED000A7648D1
:1037C00090ED000A5FED9A0AB4EEE00AF1EE10FA0D
:1037D00002D21FED9D0A02E06F4890ED000A6E488C
:1037E00080ED000A6E4880ED000A6C4890ED000AFA
:1037F000F3EE090AB4EEE00AF1EE10FA02DDB3EEE0
:10380000090A02E0654890ED000A644880ED000A6C
:10381000644880ED000A614890ED000A5FEDAF0A50
:10382000B4EEE00AF1EE10FA03D21FEDB20A03E0A3
:103830002AE05A4890ED000A584880ED000A59489D
:1038400080ED000A5148D0ED060AB0EE600A5448F7
:10385000FFF7D4FC00EE100AB8EEC00A3D4880ED38
:10386000000A4948D0ED030AB0EE600A4D48FFF760
:10387000C5FC404200EE100AB8EEC00A374880EDA1
:10388000000A00203D490870324890ED000A5FEDC3
:10389000CA0AB4EEE00AF1EE10FA02D290ED000A84
:1038A00001E01FEDCF0A2B4880ED000A90ED000AE1
:1038B000DFED290AB4EEE00AF1EE10FA02DD90ED38
:1038C000000A01E09FED240A224880ED000A234807
:1038D00090ED000A5FEDDC0AB4EEE00AF1EE10FABA
:1038E00002D290ED000A01E01FEDE10A1B4880EDD5
:1038F000000A90ED000ADFED180AB4EEE00AF1EEDE
:1039000010FA02DD90ED000A01E09FED130A134862
:1039100080ED000A124890ED000A0E48FFF76EFC99
:10392000404200B20F4908800F4890ED000A0B4852
:10393000FFF764FC00F5167000B20C4908800948D6
:10394000B0F9000041F2883188422DDA0548B0F91B
:1039500000002BE0D8000020008022C400010020DD
:1039600054000020300000205800002032000020C9
:1039700078ECFFFFDE01002048000020500000200E
:10398000A80000207801002090010020A80100205C
:1039900040000020440000203400002038000020B7
:1039A000280100205001002041F28830364908806B
:1039B0000846B0F900003549884203DD3248B0F9C5
:1039C000000000E03148304908803148B0F900007B
:1039D00041F28831884203DA2D48B0F9000001E055
:1039E00041F288302A4908800846B0F9000027498A
:1039F000884203DD2648B0F9000000E0234824494E
:103A000008802448407A022829D11F49B1F90000D2
:103A1000C11700EB1161090A1F4A11701A49B1F967
:103A20000000C11700EB11610912A0EB01215170D8
:103A30001749B1F90000C11700EB1161090A917033
:103A40001349B1F90000C11700EB11610912A0EB95
:103A50000121D17008211046FFF7F5FA09E0002096
:103A60000D49087048708870C87008210A48FFF72F
:103A7000EAFA0A480078401C084908700121084801
:103A8000FEF730FE10BD00003000002078ECFFFF94
:103A900032000020DE0100204800002050000020FD
:103AA0000020004000B597B001210820FDF750FF2D
:103AB00001214804FDF795FF01214805FDF748FF66
:103AC000072206217748FDF730FD4020159002209F
:103AD0008DF8580000208DF85A0003208DF8590009
:103AE00001208DF85B0015A96E48FDF793FC6E4828
:103AF000FEF7D4FE6D4811900020ADF84800ADF8F7
:103B00004A004FF48060ADF84C000420ADF84E0040
:103B10000020ADF8500011A96348FEF726FF0121EF
:103B20006148FEF7AAFF012240215F48FFF752F8E3
:103B300010208DF8400003208DF841008DF84200E0
:103B400001208DF8430010A8FCF7A7FC5848FDF7AA
:103B500007FA4FF0006001905348001D029055484D
:103B600003900020049012200590002006904FF44E
:103B7000806007900020089009904FF480700A90B0
:103B80004FF440300B9000200C900D900E900F9051
:103B900001A94748FDF786FA012210214448FDF7A4
:103BA00048FB01214248FDF7B7FA17B000BD10B538
:103BB00041493F48FDF75AFB002871D03F493C4836
:103BC000FDF723FB3C493A48FDF77AFB394800787A
:103BD0003849497840EA0120C0F30A00C0F5806006
:103BE0003749088033484078C0103249897840EA24
:103BF0004110C0F30A00C0F58060314948802D486B
:103C0000807880112B49C97840EA810029490979D7
:103C100040EA8120C0F30A00C0F58060284988800E
:103C20002448007940102349497940EAC110C0F383
:103C30000A00C0F580602249C8801E484079001102
:103C4000800808721B484079C0F301104872194877
:103C500080791849C97940EA012000B218494881A1
:103C60001448007A1349497A40EA012000B2144905
:103C700088811048807A0F49C97A40EA012000B251
:103C80000F49C8810B48007B08740A48407B487480
:103C90000848807B0749C97B40EA012008494882DF
:103CA00010BD0000000C024000440040A08601004E
:103CB00088600240CC01002000880020000800201D
:103CC000DE0100202DE9F04106460F4614461D4650
:103CD00000F05CFA002141EA4601C8B200F002FBA4
:103CE00000F095FA20B100F073FA0120BDE8F081F0
:103CF000384600F0F7FA00F08AFA00F047FA01219E
:103D000001EB4601C8B200F0EDFA00F080FA0DE0D8
:103D1000012C04D1002000F012FB287003E00120E8
:103D200000F00DFB2870601EC4B26D1C002CEFD19A
:103D300000F04EFA0020D9E77CB504460D466B46EC
:103D4000062243216820FFF7BDFF06467EB99DF895
:103D500001009DF8001040EA012000B220809DF88B
:103D600005009DF8041040EA012000B2288030468A
:103D70007CBD7CB500250026694601A8FFF7DCFF65
:103D8000BDF90400E649B1F90010401AE549C1F84F
:103D9000A000BDF90000E449B1F90010411AE14862
:103DA000C0F84411002417E0DE49601C51F82000DF
:103DB00041F8240001F1A400611C50F8211040F8E2
:103DC0002410A43850F824000544D648A43050F8F4
:103DD00024000644601CC4B2282CE5DBBDF90000B9
:103DE000D149B1F90010401A00EE100AB8EEC00A2D
:103DF000DFEDCE0A80EE201ACD4880ED001ABDF925
:103E00000400C749B1F90010401A00EE100AB8EEDC
:103E1000C00ADFEDC80A80EE201AC74880ED001AFC
:103E20007CBD70B505460C4600F0B0F9D02000F01E
:103E300059FA00F0ECF918B100F0CAF9012070BD90
:103E4000284600F04FFA00F0E2F9204600F04AFA66
:103E500000F0DDF918B100F0BBF90120EFE700F048
:103E6000B7F90020EBE770B504460025BC2C01DB58
:103E7000012510E0622C01DB02250CE02A2C01DB7D
:103E8000032508E0142C01DB042504E00A2C01DBE7
:103E9000052500E0062529461A20FFF7C2FF70BD60
:103EA00070B50446B4F57A7F01DD4FF47A74042CC2
:103EB00000DA04244FF47A7090FBF4F0401EC5B28F
:103EC00029461920FFF7ADFF0546264604EBD671BB
:103ED000C1F34F00FFF7C7FF70BD70B5044600F097
:103EE00055F9D02000F0FEF900F091F9204600F0DD
:103EF000F9F900F08CF900F049F9D12000F0F2F95D
:103F000000F085F9002000F01AFA054600F060F98B
:103F1000284670BD10B50446E006010E1C20FFF7D0
:103F200080FF10BD10B50446E006010E1B20FFF710
:103F300078FF10BD10B500F00BF980216B20FFF762
:103F400070FF6420FEF736FF00216B20FFF769FF4A
:103F50000020FFF7E7FF0020FFF7DCFF4FF47A7047
:103F6000FFF79EFF00213820FFF75BFF00216A204A
:103F7000FFF757FF00212320FFF753FF8021372051
:103F8000FFF74FFF7520FFF7A8FF0446682C0CD100
:103F900001216B20FFF745FF00216C20FFF741FF57
:103FA0004FF47A70FFF77CFF01E0012010BD002084
:103FB000FCE710B52DED088B82B001AB0222412148
:103FC0006820FFF77FFE9DF805009DF8041040EA89
:103FD000012004B2204603F033FE41EC1B0B9FEDA1
:103FE000570B53EC102B03F0BCFD41EC1A0B9FED6B
:103FF000550B53EC102B03F09BFC41EC190B03F019
:1040000043FE08EE100A9FED510A28EE000ABDEEAD
:10401000C00A10EE100A00B202B0BDEC088B10BD51
:104020002DE9FC4104460D4616466B460622432107
:104030006820FFF747FE0746BFB99DF801009DF8CD
:10404000001040EA012000B220809DF803009DF896
:10405000021040EA012000B228809DF805009DF87A
:10406000041040EA012000B230803846BDE8FC81EF
:104070002DE9FC4104460D4616466B4606223B21BF
:104080006820FFF71FFE0746BFB99DF801009DF8A5
:10409000001040EA012000B220809DF803009DF846
:1040A000021040EA012000B228809DF805009DF82A
:1040B000041040EA012000B230803846BDE8FC819F
:1040C0002DE9F04105460E461746984600F05EF889
:1040D000002141EA4501C8B200F004F900F097F868
:1040E00020B100F075F80120BDE8F081304600F005
:1040F000F9F800F08CF800240CE018F8040000F047
:10410000F1F800F084F818B100F062F80120EBE754
:10411000601CC4B2BC42F0DB00F05AF80020E3E7B8
:104120005C000020F40100205E000020000002433B
:10413000540000200000A0435800002000000000B0
:1041400000407540A4703D0AD74342400000C84279
:104150001CB501212020FDF7FBFB1420009001205D
:104160008DF8040000208DF8060003208DF805006E
:1041700001208DF8070069468848FDF74BF90120BA
:10418000874908608749C1F888021CBD10B583487B
:10419000006820F03000814908600846006840F05F
:1041A0001000086001207E49083908607D49C1F887
:1041B00090020420FEF7B6FD002079490839086016
:1041C0000420FEF7AFFD00207649C1F8900210BD33
:1041D00010B57248006820F0300070490860084649
:1041E000006840F01000086000206D4908606D49CB
:1041F000C1F888020420FEF795FD01206849086097
:104200006849C1F888020420FEF78CFD10BD10B586
:1042100000246248006820F03000604908600846C9
:104220000068086001205E4908390860FEF77AFDE1
:1042300001205C49C1F89002FEF774FD07E0601CA4
:10424000C4B2FA2C03DDFFF7C3FF012010BD5448B0
:10425000883800680028F2D15149086000BFF5E7AE
:1042600010B500204E4908604C48006820F030002E
:104270004A4908600846006840F0100008600020C5
:104280004849C1F888020220FEF74CFD012044494C
:1042900008600220FEF746FD00204249C1F8900266
:1042A00010BD10B500203E4908603C48006820F071
:1042B00030003A4908600846006840F01000086085
:1042C00001203849C1F888020220FEF72BFD0120A9
:1042D000334908600220FEF725FD00203149C1F86E
:1042E000900210BD70B504462C48006820F03000E4
:1042F0002A4908600846006840F010000860002065
:1043000027490860002517E0E009254908390860B9
:104310006006040E0220FEF705FD01202149C1F8C8
:1043200090020220FEF7FEFC00201D4908600220DA
:10433000FEF7F8FC681CC5B2082DE5DB70BD70B552
:10434000054600241548006820F030001349086035
:10435000084600680860002616E000201049086042
:104360000220FEF7DFFC01200E49C1F89002600632
:10437000040E0B488838006808B1601CC4B20120E4
:10438000FEF7D0FC701CC6B2082EE6DB15B9FFF7AD
:1043900088FF01E0FFF764FF204670BD0014024073
:1043A000908242420080424200210160416081606F
:1043B000C16041610161816180ED070AC0ED080AB9
:1043C00080ED091A70471FB501218020FDF709FB18
:1043D000C720029040F24730ADF804000020ADF84D
:1043E0000600ADF80C0001A9FE48FDF7B2FC012261
:1043F0001146FC48FEF74EF90121FA48FDF732FD5F
:104400002C208DF8000001208DF8010002208DF88D
:10441000020001208DF803006846FCF73EF8B7EE75
:10442000001ADFEDF10AB2EE000AF048FFF7BCFF18
:10443000B7EE001ADFEDEC0AB2EE000AEC48FFF727
:10444000B3FFB7EE001ADFEDE80AB2EE000AE94862
:10445000FFF7AAFFB7EE001ADFEDE30AB2EE000A9B
:10446000E548FFF7A1FFB7EE001ADFEDDF0AB0EE77
:10447000000AE248FFF798FF1FBD70B5049CE04DAD
:10448000B5F90050651BDE4EB6F90460AD1B056042
:10449000DB4DB5F900502544D94EB6F904603544DA
:1044A0006D420D60D64DB5F90050651BD44EB6F97E
:1044B000046035446D421560D14DB5F90050254476
:1044C000CF4EB6F90460AD1B1D6070BD0146FDEE18
:1044D000C00AC1ED020AC86808618A680868801AC3
:1044E000C860CA6888691044886191ED071AD1EDE7
:1044F000030AF8EEE00A61EE200AD1ED081A91ED08
:10450000061AB8EEC11A41EE810AD1E90302801AF7
:1045100001EE100AB8EEC11AD1ED091A41EE810A76
:10452000FDEEE00AC1ED010A486870472DE9FE433F
:104530000121AC48FEF7C5F8012873D1B148C07815
:10454000B049897840EA012000B2AF4908800846A6
:10455000B0F9000047F6FF71884203DAAA48B0F9C3
:10456000000005E0A848B0F90000A0F57F40FF3842
:1045700000B2A5490880A348C17A807A41EA0020A8
:1045800000B2A14948800846B0F9020047F6FF7121
:10459000884203DA9C48B0F9020005E09A48B0F975
:1045A0000200A0F57F40FF3800B297494880954847
:1045B000C17C807C41EA002000B293498880084693
:1045C000B0F9040047F6FF71884203DA8E48B0F96B
:1045D000040005E08C48B0F90400A0F57F40FF38E6
:1045E00000B2894988808748C17E807E41EA0020E8
:1045F00000B28549C8800846B0F9060047F6FF7149
:10460000884203DA8048B0F9060005E07E48B0F938
:104610000600A0F57F40FF3800B27B49C8804FF00C
:1046200000080EE00BE1784830F918000D2190FBEE
:10463000F1F000B2744921F8180008F1010000F00F
:10464000FF08B8F1040FEEDB7048D0ED030AB0EEBE
:10465000600A6A48FFF73AFF8146674B654A64493A
:1046600000906248FFF709FF6748B0F9000000EECC
:10467000900AF8EEE00AB0EE600A5C48FFF726FF09
:10468000A0F196046048B0F9020000EE900AF8EE3E
:10469000E00AB0EE600A5648FFF718FFA0F1960551
:1046A0005948B0F9040000EE900AF8EEE00AB0EEC6
:1046B000600A5048FFF70AFFA0F196065248B0F989
:1046C000060000EE900AF8EEE00AB0EE600A4A48F2
:1046D000FFF7FCFEA0F19607B4F5FA6F01DA204669
:1046E00001E04FF4FA60044614F5FA6F01DD20464C
:1046F00000E047480446B5F5FA6F01DA284601E0C4
:104700004FF4FA60054615F5FA6F01DD284600E022
:104710003F480546B6F5FA6F01DA304601E04FF43E
:10472000FA60064616F5FA6F01DD304600E03848BB
:104730000646B7F5FA6F01DA384601E04FF4FA6041
:10474000074617F5FA6F01DD384600E030480746A6
:104750002B48007A02285DD12046E11704EB116155
:10476000090A8DF80410E11704EB11610912A4EB9A
:104770000121C9B28DF805102846E91705EB116132
:10478000090A8DF80610E91705EB11610912A5EB6E
:104790000121C9B28DF807103046F11706EB1161FF
:1047A000090A8DF80810F11706EB11610912A6EB42
:1047B0000121C9B28DF809103846F91707EB1161CC
:1047C000090A8DF80A10F91707EB11610912A7EB16
:1047D0000121C9B28DF80B10082101A8FEF7FEFBDC
:1047E0002DE00000001C0040000000003C03002001
:1047F000640300208C030020B4030020DC030020AD
:10480000DE010020A80000206000002078010020C8
:1048100030F8FFFF00208DF804008DF805008DF8BA
:1048200006008DF807008DF808008DF809008DF856
:104830000A008DF80B00082101A8FEF7CFFB01212B
:104840000248FDF74FFFBDE8FE830000001C00405A
:1048500038B50446F74890F82400C0B114B10220DE
:10486000009001E000200090F24A1268D17BF14AEA
:10487000526810786B460122FFF722FC10B14FF00E
:10488000FF3038BD9DF80010EA48417423E0E94844
:10489000807A10B94FF0FF30F3E724B1E548407C4F
:1048A00008B10020EDE714B10120009001E00020E4
:1048B0000090E04A1268D17BDE4A526810786B465D
:1048C0000122FFF7FDFB10B14FF0FF30D9E79DF853
:1048D0000010D84841740020D3E738B500241FE009
:1048E000D4480068C07AA04204D0D2480068407D15
:1048F000A04200D112E0CF49496808786B460122F6
:104900002146FFF7DFF910B14FF0FF3038BD9DF8B9
:1049100000202146C8A003F02DFB00BF601CC4B2DC
:10492000C44840680079A042DADC0020EEE770B5A8
:1049300004460D46BF480068C07AA04204D0BD4876
:104940000068407DA04202D14FF0FF3070BDB948F1
:1049500040680079A04202DC4FF0FF30F6E7B5492D
:10496000496808782B4601222146FFF7ABF9EDE7AD
:1049700038B50446AF4890F82300A04201D100208A
:1049800038BD14B13020009001E000200090A9480B
:10499000807C20B19DF8000040F002000090A54806
:1049A00090F8220020B19DF8000040F080000090B7
:1049B000A04A1268117D9F4A526810786B46012206
:1049C000FFF77EFB10B14FF0FF30D9E7994880F830
:1049D00023400020D4E738B5044604F0700010B13D
:1049E0000120009005E014B10020009001E040207B
:1049F0000090904A1268917C8E4A526810786B46FB
:104A00000122FFF75DFB20B100218A488172481E18
:104A100038BD9DF8000020F0400186480173002059
:104A2000009004F0400020B99DF8000040F0040020
:104A3000009004F0200020B99DF8000040F0020032
:104A4000009004F0100020B99DF8000040F0010033
:104A5000009004F0080020B99DF8000040F03800F4
:104A60000090744A1268D17C724A526810786B4682
:104A70000122FFF725FB20B100216E488172481EFC
:104A8000C6E724B1082C02D00020FFF771FF694867
:104A90008472002101753220FEF78CF90020B7E7FF
:104AA00038B504466348807CA04201D1002038BD5F
:104AB000002C46D05F4A126811795E4A526810781D
:104AC0006B460122FFF7FEF810B14FF0FF30EEE722
:104AD0009DF8000020F020000090564A12681179DD
:104AE000544A526810786B460122FFF7E9FA10B178
:104AF0004FF0FF30DBE70320FEF75CF90220009067
:104B00004C4890F8220020B19DF8000040F0800051
:104B10000090484890F8230020B19DF8000040F034
:104B200030000090434A1268117D424A5268107862
:104B30006B460122FFF7C4FA002851D04FF0FF3036
:104B4000B5E73C4A126811793A4A526810786B46C8
:104B50000122FFF7B7F810B14FF0FF30A7E7354853
:104B6000807A00F0010028B19DF8000040F020009C
:104B7000009004E09DF8000020F0200000902D4AF5
:104B8000126811792B4A526810786B460122FFF7A0
:104B900097FA10B14FF0FF3089E70320FEF70AF9CA
:104BA000244890F8220010B18020009001E00020FD
:104BB0000090204890F8230020B19DF8000040F0BC
:104BC000300000901B4A1268117D1A4A5268107812
:104BD0006B460122FFF774FA10B14FF0FF3066E721
:104BE00014488474002062E708B51248807A10B92E
:104BF0004FF0FF3008BD002000900E4A1268D17BB4
:104C00000C4A526810786B460122FFF759FA10B12E
:104C10004FF0FF30EEE7074A12685179054A5268B3
:104C200010786B460122FFF74BFA68B14FF0FF3066
:104C3000E0E7000068000020252335783A2025238E
:104C400035780D0A00000000F84A12681179F74A19
:104C5000526810786B460122FFF732FA10B14FF01C
:104C6000FF30C7E7F14890F82400002853D00C200B
:104C70000090EE4A12681179EC4A526810786B463F
:104C80000122FFF71DFA10B14FF0FF30B2E73220DA
:104C9000FEF790F8C0200090E448807A00F0010010
:104CA00020B19DF8000040F020000090DF4A12681B
:104CB0001179DE4A526810786B460122FFF700FA3C
:104CC00010B14FF0FF3095E7D848407C10B102207A
:104CD000009001E000200090D44A1268D17BD34AB2
:104CE000526810786B460122FFF7EAF910B14FF0D5
:104CF000FF307FE700200090CC4A12685179CB4A00
:104D0000526810786B460122FFF7DAF9002855D077
:104D10004FF0FF306EE704200090C44A126811790A
:104D2000C24A526810786B460122FFF7C9F910B1E8
:104D30004FF0FF305EE7BD48807C20B9BB48807AE9
:104D400000F0010010B94020009001E060200090C8
:104D5000B64A12681179B54A526810786B4601223A
:104D6000FFF7AEF910B14FF0FF3043E73220FEF706
:104D700021F8AE48407C10B10120009001E00020F5
:104D80000090AA4A1268D17BA84A526810786B46F4
:104D90000122FFF795F910B14FF0FF302AE7A34A3F
:104DA00012685179A14A52681078A04B1033012241
:104DB000FFF786F910B14FF0FF301BE7002019E72D
:104DC00070B50446002624F00104984890F82400A9
:104DD00008B1002070BD9548807A10B94FF0FF30BF
:104DE000F8E79248057C807A20409049087408468C
:104DF000007CA04202D04FF0FF3600E0002614B93C
:104E00008A48007D18B10120FFF722FD02E0002052
:104E1000FFF71EFD3CB1FFF7E7FE20B183480574A4
:104E20004FF0FF30D6E73046D4E738B504467F4828
:104E3000807A10B94FF0FF3038BDBC2C02DB012066
:104E4000009015E0622C02DB0220009010E02A2C7A
:104E500002DB032000900BE0142C02DB0420009006
:104E600006E00A2C02DB0520009001E006200090FD
:104E70006E48C07A9DF80010884201D10020DBE71F
:104E80006A4A12689178694A526810786B46012222
:104E9000FFF716F910B14FF0FF30CDE79DF8001085
:104EA0006248C1720020C7E738B50446282C02DDED
:104EB0004FF0FF3038BDDCB90020FFF759FD00206E
:104EC0008DF8000007208DF80100584A1268917C87
:104ED000564A526810786B460222FFF7F1F810B17B
:104EE0004FF0FF30E6E70021504801750020E1E770
:104EF0000120FFF73DFD20208DF80000012C06D198
:104F000000208DF801000520FFF78FFF17E0052C2A
:104F100006DC01208DF801000520FFF786FF0EE07A
:104F2000142C06DC02208DF801000A20FFF77DFF1B
:104F300005E003208DF801001420FFF776FF9DF8AF
:104F40000100072101EB8010C0B28DF80100374A43
:104F50001268917C354A526810786B460222FFF73E
:104F6000AFF810B14FF0FF30A4E708212F4881724D
:104F700000210173012101750020FFF721FF0020AE
:104F800098E738B504462948807A10B94FF0FF30C9
:104F900038BD264890F8240010B14FF0FF30F7E7F5
:104FA0002248007D50B134B1282C04DCE0B2FFF778
:104FB0007BFF0020ECE70020FFF776FF042C01DAEE
:104FC000042404E0B4F57A7F01DD4FF47A744FF4E1
:104FD0007A7090FBF4F0401EC0B20090134A126841
:104FE0005178124A526810786B460122FFF768F830
:104FF00010B14FF0FF30CBE79DF80000401C4FF49C
:105000007A7191FBF0F081B20848C1810146C989EB
:105010004810FFF70AFF0020BAE738B504460348F6
:10502000807A28B94FF0FF3038BD000068000020BA
:10503000022C06D0042C07D0082C08D0102C0CD140
:1050400008E0002000900BE00820009008E010200D
:10505000009005E01820009002E04FF0FF30E3E7F9
:1050600000BFF748407A9DF80010B0EBE10F01D186
:105070000020D9E7F24A1268D179F14A52681078D3
:105080006B460122FFF71CF810B14FF0FF30CBE761
:105090009DF80000C110EA4841720020C4E738B50D
:1050A0000446E748807A10B94FF0FF3038BDFA2C3B
:1050B00009D0B4F5FA7F09D0B4F57A7F09D0B4F5F8
:1050C000FA6F0CD108E0002000900BE0082000905F
:1050D00008E01020009005E01820009002E04FF05A
:1050E000FF30E3E700BFD648007A9DF80010B0EB30
:1050F000E10F01D10020D9E7D14A12689179D04A55
:10510000526810786B460122FEF7DAFF10B14FF0BB
:10511000FF30CBE79DF80000C010C949087200209D
:10512000C4E71CB580208DF80000C54A1268917C48
:10513000C34A526810786B460122FEF7C1FF10B1D6
:105140004FF0FF301CBD6420FDF734FE00208DF8C9
:105150000000BB4A1268917CB94A526810786B46CD
:105160000122FEF7ADFF10B14FF0FF30EAE7B44A7D
:105170001268917DB24A526810786B460622FEF79B
:10518000A1FD10B14FF0FF30DCE79DF80500C0072E
:10519000400F9DF8031001F0010140EA41009DF825
:1051A000011001F0010140EA010494B1012C03D186
:1051B0000121A348C17431E0022C03D10021A04891
:1051C000C1742BE021469FA002F0D4FE4FF0FF30C7
:1051D000B8E79B4A1268D178994A526810786B46B2
:1051E0000122FEF76FFD10B14FF0FF30AAE79DF8E6
:1051F000000000F00F042CB99C4802F0BBFE4FF0F9
:10520000FF309FE7042C06D199A002F0B3FE0121E4
:105210008B48C17402E000218948C174FF2188488D
:105220008172FF2086490872FF2185484172C17250
:105230004FF6FF71C181FF21017481740121017357
:1052400080F82210002180F8231041750175163076
:10525000016041608160163880F8241080F82510C4
:10526000C1844FF4FA60FFF71AFF10B14FF0FF301E
:1052700068E70220FFF7D1FE10B14FF0FF3061E781
:105280002A20FFF7D2FD10B14FF0FF305AE732204D
:10529000FFF777FE10B14FF0FF3053E70020FFF724
:1052A0008FFD10B14FF0FF304CE70020FFF7F8FB07
:1052B00010B14FF0FF3045E70020FFF78CFB0020D6
:1052C00040E770477CB504460D465D48807A00F0A3
:1052D000700010B94FF0FF307CBD594A1268117B45
:1052E000574A526810786B460622FEF7EBFC10B165
:1052F0004FF0FF30F0E79DF801009DF8001040EA04
:10530000012000B220809DF803009DF8021040EAC1
:10531000012000B260809DF805009DF8041040EA6D
:10532000012000B2A08015B12846FFF7CAFF002077
:10533000D2E77CB504460D464148807A00F008006B
:1053400010B94FF0FF307CBD3D4A1268517B3C4A9A
:10535000526810786B460622FEF7B4FC10B14FF08D
:10536000FF30F0E79DF801009DF8001040EA0120B1
:1053700000B220809DF803009DF8021040EA012051
:1053800000B260809DF805009DF8041040EA0120FD
:1053900000B2A08015B12846FFF793FF0020D2E7A6
:1053A000F8B506460C462648807A10B94FF0FF3013
:1053B000F8BD234A1268917B214A526810786B46E7
:1053C0000222FEF77FFC10B14FF0FF30F0E79DF8AE
:1053D00001009DF8001040EA012005B214B12046FA
:1053E000FFF76FFF16484068B0F9080000EE100A9A
:1053F000F8EEC00A00EE105AB8EEC00A70EE600A6D
:105400000F484068C08800EE100AB8EE400A80EEEF
:10541000801A9FED1F0A31EE000ADFED1E0A20EE12
:10542000200ABDEEC00A86ED000A0020C0E710B5D4
:1054300088B004461CB94FF0FF3008B010BD2BE017
:1054400068000020556E737570706F72746564200B
:10545000736F6674776172652070726F64756374C0
:10546000207265762025642E0A000000C09B00088B
:1054700048616C662073656E7369746976697479C6
:10548000207061727420666F756E642E0A000000D1
:1054900000000C4200008047206830B9606820B9E5
:1054A000A06810B9002008B010BDF9494968087813
:1054B00006AB03221146FEF705FC10B14FF0FF309A
:1054C000F1E79DF81800082101EB201000F00F0013
:1054D000ADF800009DF8190001EB201000F00F005E
:1054E000ADF802009DF81A0001EB201000F00F004B
:1054F000ADF8040020684100BDF90000403091FB88
:10550000F0F000B2ADF8100060684100BDF9020093
:10551000403091FBF0F000B2ADF81200A0684100FD
:10552000BDF90400403091FBF0F000B2ADF814007A
:10553000D7494968087806AB06221146FEF7C2FB38
:1055400010B14FF0FF30AEE79DF819009DF818102C
:1055500040EA012000B2ADF808009DF81B009DF85C
:105560001A1040EA012000B2ADF80A009DF81D00B3
:105570009DF81C1040EA012000B2ADF80C00BDF807
:105580001000BDF80810084400B2ADF81000BDF8D6
:105590001200BDF80A10084400B2ADF81200BDF8C0
:1055A0001400BDF80C10084400B2ADF81400BDF8AA
:1055B0001000000A8DF81800BDF81000C0B28DF878
:1055C0001900BDF81200000A8DF81A00BDF812008B
:1055D000C0B28DF81B00BDF81400000A8DF81C0045
:1055E000BDF81400C0B28DF81D00A94949680878BB
:1055F00006AB06221146FEF763FD10B14FF0FF30F7
:1056000051E700204FE70146A148007A30B1012858
:1056100007D0022809D003280FD10AE0FA20088019
:105620000EE04FF4FA7008800AE04FF47A700880B8
:1056300006E04FF4FA60088002E00020088000BF16
:1056400000BF0020704701469148407A30B10128E0
:1056500007D0022808D003280CD108E002200870E7
:105660000BE00420087008E00820087005E0102016
:10567000087002E04FF0FF30704700BF8448C07CE4
:1056800018B108784006000E08700020F4E70146C3
:105690007F48C07A082817D2DFE800F01704070A0D
:1056A0000D101318BC20088013E06220088010E061
:1056B0002A2008800DE0142008800AE00A200880D3
:1056C00007E00520088004E000BF00BF002008803C
:1056D00000BF00BF0020704701466D4890F82400CD
:1056E00010B14FF0FF3070476948C0890880002032
:1056F000F9E7014600200880401E704701464FF040
:10570000FF30704701466248007A30B1012809D065
:1057100002280CD0032814D10EE09FED5E0A81ED23
:10572000000A11E09FED5C0A81ED000A0CE09FED9C
:105730005B0A81ED000A07E09FED590A81ED000A3E
:1057400002E04FF0FF30704700BF0020FBE701464A
:105750004F48407A30B1012808D002280AD00328E7
:1057600010D10BE04FF4804008800EE041F69C70B1
:1057700008800AE04FF48050088006E04FF4006093
:10578000088002E04FF0FF30704700BF4048C07C07
:1057900010B10888401008800020F5E701463C4819
:1057A000007C08700020704701463948807A10B1AB
:1057B0000120087001E0002008700020704738B513
:1057C00004463348807A10B94FF0FF3038BD304A74
:1057D0001268117C2E4A526810786B460222FEF73E
:1057E00071FA10B14FF0FF30F0E79DF801009DF81D
:1057F000001040EA012000B220800020E6E72DE9F9
:10580000FE4F0746884692461D46DDF830B000261A
:1058100000241F4890F8240010B1601EBDE8FE8FE0
:10582000002028701A48807A10B94FF0FF30F5E751
:105830001748007C10B94FF0FF30EFE71448007CA8
:1058400000F0400008B1B01CC6B21148007C00F066
:10585000200008B1B01CC6B20D48007C00F010005A
:1058600008B1B01CC6B20A48007C00F0080008B1BC
:10587000B01DC6B2064A1268917A054A526810787D
:105880006B460222FEF71EFA60B14FF0FF30C5E70B
:1058900068000020000003430000834233330342CA
:1058A000333383419DF801009DF8001040EA01293F
:1058B000B14501DA0020B1E7FA4840684088B9EB09
:1058C000600F17DDF74A1268517CF64A526810786B
:1058D0006B460122FEF7F6F910B14FF0FF309DE75D
:1058E0009DF8000000F0100020B1FFF77DF96FF087
:1058F000010093E75046FFF7E4FCEA4A1268D17AC8
:10590000E84A526810786B463246FEF7DBF910B170
:105910004FF0FF3082E799FBF6F0401E8BF8000055
:1059200000202870B4422AD0DE48007C00F0080035
:1059300028B3601C1DF800001DF8041040EA012087
:1059400000B2A8F80000E01C1DF80010A01C1DF813
:10595000000041EA002000B2A8F80200601D1DF816
:105960000010201D1DF8000041EA002000B2A8F838
:105970000400287840F008002870A01D84B2B442CA
:1059800013D0C848007C00F0400070B1601C1DF8C6
:1059900000001DF8041040EA012000B23880287889
:1059A00040F040002870A01C84B2B44213D0BD481F
:1059B000007C00F0200070B1601C1DF800001DF894
:1059C000041040EA012000B27880287840F02000DE
:1059D0002870A01C84B2B44213D0B248007C00F0FE
:1059E000100070B1601C1DF800001DF8041040EAA2
:1059F000012000B2B880287840F010002870A01C68
:105A000084B200200AE7F8B504460F461646A548BA
:105A100090F8240010B94FF0FF30F8BDA148807A0B
:105A200010B94FF0FF30F8E79E4A1268917A9D4A0C
:105A3000526810786B460222FEF744F910B14FF01D
:105A4000FF30EAE79DF801009DF8001040EA0125CB
:105A5000A54203DA00203070401EDEE7914840681E
:105A60004088B5EB600F17DD8E4A1268517C8D4A75
:105A7000526810786B460122FEF724F910B14FF0FE
:105A8000FF30CAE79DF8000000F0100020B1FFF7DA
:105A9000ABF86FF00100C0E7E2B2824B1B68D97A25
:105AA000804B5B6818783B46FEF70CF910B14FF05D
:105AB000FF30B2E795FBF4F0401E30700020ACE7F9
:105AC0000146784880F82210002070477CB50546D2
:105AD00074494968087801AB04220D21FEF7F2F8F9
